{
  "_format": "hh-sol-artifact-1",
  "contractName": "FlashLoanArbitrage",
  "sourceName": "contracts/FlashLoanArbitrage.sol",
  "abi": [
    {
      "inputs": [
        {
          "internalType": "contract IPoolAddressesProvider",
          "name": "_poolAddressesProvider",
          "type": "address"
        },
        {
          "internalType": "contract ISwapRouter",
          "name": "_uniswapSwapRouter",
          "type": "address"
        },
        {
          "internalType": "contract IUniswapV2Router02",
          "name": "_sushiswapSwapRouter",
          "type": "address"
        }
      ],
      "stateMutability": "nonpayable",
      "type": "constructor"
    },
    {
      "inputs": [],
      "name": "ADDRESSES_PROVIDER",
      "outputs": [
        {
          "internalType": "contract IPoolAddressesProvider",
          "name": "",
          "type": "address"
        }
      ],
      "stateMutability": "view",
      "type": "function"
    },
    {
      "inputs": [],
      "name": "POOL",
      "outputs": [
        {
          "internalType": "contract IPool",
          "name": "",
          "type": "address"
        }
      ],
      "stateMutability": "view",
      "type": "function"
    },
    {
      "inputs": [],
      "name": "SUSHISWAP_SWAP_ROUTER",
      "outputs": [
        {
          "internalType": "contract IUniswapV2Router02",
          "name": "",
          "type": "address"
        }
      ],
      "stateMutability": "view",
      "type": "function"
    },
    {
      "inputs": [],
      "name": "UNISWAP_SWAP_ROUTER",
      "outputs": [
        {
          "internalType": "contract ISwapRouter",
          "name": "",
          "type": "address"
        }
      ],
      "stateMutability": "view",
      "type": "function"
    },
    {
      "inputs": [],
      "name": "deposit",
      "outputs": [],
      "stateMutability": "payable",
      "type": "function"
    },
    {
      "inputs": [
        {
          "internalType": "address",
          "name": "_token",
          "type": "address"
        },
        {
          "internalType": "uint256",
          "name": "_amount",
          "type": "uint256"
        }
      ],
      "name": "depositToken",
      "outputs": [],
      "stateMutability": "nonpayable",
      "type": "function"
    },
    {
      "inputs": [
        {
          "internalType": "address",
          "name": "_token0",
          "type": "address"
        },
        {
          "internalType": "address",
          "name": "_token1",
          "type": "address"
        },
        {
          "internalType": "uint256",
          "name": "_amount",
          "type": "uint256"
        }
      ],
      "name": "executeArbitrage",
      "outputs": [],
      "stateMutability": "nonpayable",
      "type": "function"
    },
    {
      "inputs": [
        {
          "internalType": "address",
          "name": "asset",
          "type": "address"
        },
        {
          "internalType": "uint256",
          "name": "amount",
          "type": "uint256"
        },
        {
          "internalType": "uint256",
          "name": "premium",
          "type": "uint256"
        },
        {
          "internalType": "address",
          "name": "initiator",
          "type": "address"
        },
        {
          "internalType": "bytes",
          "name": "params",
          "type": "bytes"
        }
      ],
      "name": "executeOperation",
      "outputs": [
        {
          "internalType": "bool",
          "name": "",
          "type": "bool"
        }
      ],
      "stateMutability": "nonpayable",
      "type": "function"
    },
    {
      "inputs": [
        {
          "internalType": "address",
          "name": "_tokenIn",
          "type": "address"
        },
        {
          "internalType": "address",
          "name": "_tokenOut",
          "type": "address"
        },
        {
          "internalType": "uint256",
          "name": "_amount",
          "type": "uint256"
        }
      ],
      "name": "sushiswapSwap",
      "outputs": [
        {
          "internalType": "uint256[]",
          "name": "amounts",
          "type": "uint256[]"
        }
      ],
      "stateMutability": "nonpayable",
      "type": "function"
    },
    {
      "inputs": [
        {
          "internalType": "address",
          "name": "_tokenIn",
          "type": "address"
        },
        {
          "internalType": "address",
          "name": "_tokenOut",
          "type": "address"
        },
        {
          "internalType": "uint256",
          "name": "_amount",
          "type": "uint256"
        }
      ],
      "name": "uniswapSwap",
      "outputs": [
        {
          "internalType": "uint256",
          "name": "amountOut",
          "type": "uint256"
        }
      ],
      "stateMutability": "nonpayable",
      "type": "function"
    },
    {
      "inputs": [
        {
          "internalType": "address",
          "name": "_token",
          "type": "address"
        },
        {
          "internalType": "uint256",
          "name": "_amount",
          "type": "uint256"
        }
      ],
      "name": "withdrawFunds",
      "outputs": [],
      "stateMutability": "nonpayable",
      "type": "function"
    }
  ],
  "bytecode": "0x60c06040523480156200001157600080fd5b50604051620020b3380380620020b3833981810160405281019062000037919062000305565b8173ffffffffffffffffffffffffffffffffffffffff1660808173ffffffffffffffffffffffffffffffffffffffff168152505082600160006101000a81548173ffffffffffffffffffffffffffffffffffffffff021916908373ffffffffffffffffffffffffffffffffffffffff1602179055508073ffffffffffffffffffffffffffffffffffffffff1660a08173ffffffffffffffffffffffffffffffffffffffff1681525050600160009054906101000a900473ffffffffffffffffffffffffffffffffffffffff1673ffffffffffffffffffffffffffffffffffffffff1663026b1d5f6040518163ffffffff1660e01b8152600401602060405180830381865afa1580156200014e573d6000803e3d6000fd5b505050506040513d601f19601f8201168201806040525081019062000174919062000392565b6000806101000a81548173ffffffffffffffffffffffffffffffffffffffff021916908373ffffffffffffffffffffffffffffffffffffffff16021790555033600260006101000a81548173ffffffffffffffffffffffffffffffffffffffff021916908373ffffffffffffffffffffffffffffffffffffffff160217905550505050620003c4565b600080fd5b600073ffffffffffffffffffffffffffffffffffffffff82169050919050565b60006200022f8262000202565b9050919050565b6000620002438262000222565b9050919050565b620002558162000236565b81146200026157600080fd5b50565b60008151905062000275816200024a565b92915050565b6000620002888262000222565b9050919050565b6200029a816200027b565b8114620002a657600080fd5b50565b600081519050620002ba816200028f565b92915050565b6000620002cd8262000222565b9050919050565b620002df81620002c0565b8114620002eb57600080fd5b50565b600081519050620002ff81620002d4565b92915050565b600080600060608486031215620003215762000320620001fd565b5b6000620003318682870162000264565b93505060206200034486828701620002a9565b92505060406200035786828701620002ee565b9150509250925092565b6200036c8162000222565b81146200037857600080fd5b50565b6000815190506200038c8162000361565b92915050565b600060208284031215620003ab57620003aa620001fd565b5b6000620003bb848285016200037b565b91505092915050565b60805160a051611cad620004066000396000818161051401528181610627015261079f01526000818161095701528181610a1d0152610c1b0152611cad6000f3fe60806040526004361061009c5760003560e01c8063650f84be11610064578063650f84be1461019a5780637535d246146101c3578063996ee3e8146101ee578063c10753291461022b578063d0e30db014610254578063dcaa117c1461025e5761009c565b80630542975c146100a15780631b11d0ff146100cc5780632c9a1a1c14610109578063338b5dea146101465780634a3b87201461016f575b600080fd5b3480156100ad57600080fd5b506100b6610289565b6040516100c39190610f66565b60405180910390f35b3480156100d857600080fd5b506100f360048036038101906100ee919061106e565b6102af565b6040516101009190611123565b60405180910390f35b34801561011557600080fd5b50610130600480360381019061012b919061113e565b610501565b60405161013d919061124f565b60405180910390f35b34801561015257600080fd5b5061016d60048036038101906101689190611271565b6106da565b005b34801561017b57600080fd5b5061018461079d565b60405161019191906112d2565b60405180910390f35b3480156101a657600080fd5b506101c160048036038101906101bc919061113e565b6107c1565b005b3480156101cf57600080fd5b506101d8610920565b6040516101e5919061130e565b60405180910390f35b3480156101fa57600080fd5b506102156004803603810190610210919061113e565b610944565b6040516102229190611338565b60405180910390f35b34801561023757600080fd5b50610252600480360381019061024d9190611271565b610ac1565b005b61025c610bd4565b005b34801561026a57600080fd5b50610273610c19565b6040516102809190611374565b60405180910390f35b600160009054906101000a900473ffffffffffffffffffffffffffffffffffffffff1681565b6000803073ffffffffffffffffffffffffffffffffffffffff1663996ee3e8600360009054906101000a900473ffffffffffffffffffffffffffffffffffffffff16600460009054906101000a900473ffffffffffffffffffffffffffffffffffffffff168a6040518463ffffffff1660e01b81526004016103339392919061139e565b6020604051808303816000875af1158015610352573d6000803e3d6000fd5b505050506040513d601f19601f8201168201806040525081019061037691906113ea565b90503073ffffffffffffffffffffffffffffffffffffffff16632c9a1a1c600460009054906101000a900473ffffffffffffffffffffffffffffffffffffffff16600360009054906101000a900473ffffffffffffffffffffffffffffffffffffffff16846040518463ffffffff1660e01b81526004016103f99392919061139e565b6000604051808303816000875af1158015610418573d6000803e3d6000fd5b505050506040513d6000823e3d601f19601f820116820180604052508101906104419190611566565b506000868861045091906115de565b90508873ffffffffffffffffffffffffffffffffffffffff1663095ea7b360008054906101000a900473ffffffffffffffffffffffffffffffffffffffff16836040518363ffffffff1660e01b81526004016104ad929190611612565b6020604051808303816000875af11580156104cc573d6000803e3d6000fd5b505050506040513d601f19601f820116820180604052508101906104f09190611667565b506001925050509695505050505050565b606061050e843084610c3d565b610539847f000000000000000000000000000000000000000000000000000000000000000084610d92565b6000600267ffffffffffffffff81111561055657610555611428565b5b6040519080825280602002602001820160405280156105845781602001602082028036833780820191505090505b509050848160008151811061059c5761059b611694565b5b602002602001019073ffffffffffffffffffffffffffffffffffffffff16908173ffffffffffffffffffffffffffffffffffffffff168152505083816001815181106105eb576105ea611694565b5b602002602001019073ffffffffffffffffffffffffffffffffffffffff16908173ffffffffffffffffffffffffffffffffffffffff16815250507f000000000000000000000000000000000000000000000000000000000000000073ffffffffffffffffffffffffffffffffffffffff166338ed1739846000843060006040518663ffffffff1660e01b81526004016106889594939291906117bc565b6000604051808303816000875af11580156106a7573d6000803e3d6000fd5b505050506040513d6000823e3d601f19601f820116820180604052508101906106d09190611566565b9150509392505050565b8173ffffffffffffffffffffffffffffffffffffffff166323b872dd3330846040518463ffffffff1660e01b81526004016107179392919061139e565b6020604051808303816000875af1158015610736573d6000803e3d6000fd5b505050506040513d601f19601f8201168201806040525081019061075a9190611667565b610799576040517f08c379a000000000000000000000000000000000000000000000000000000000815260040161079090611873565b60405180910390fd5b5050565b7f000000000000000000000000000000000000000000000000000000000000000081565b600030905083600360006101000a81548173ffffffffffffffffffffffffffffffffffffffff021916908373ffffffffffffffffffffffffffffffffffffffff16021790555082600460006101000a81548173ffffffffffffffffffffffffffffffffffffffff021916908373ffffffffffffffffffffffffffffffffffffffff160217905550600082905060006040518060200160405280600081525090506000808054906101000a900473ffffffffffffffffffffffffffffffffffffffff1673ffffffffffffffffffffffffffffffffffffffff166342b0b77c85600360009054906101000a900473ffffffffffffffffffffffffffffffffffffffff168686866040518663ffffffff1660e01b81526004016108e595949392919061192f565b600060405180830381600087803b1580156108ff57600080fd5b505af1158015610913573d6000803e3d6000fd5b5050505050505050505050565b60008054906101000a900473ffffffffffffffffffffffffffffffffffffffff1681565b6000610951843084610c3d565b61097c847f000000000000000000000000000000000000000000000000000000000000000084610d92565b60006040518061010001604052808673ffffffffffffffffffffffffffffffffffffffff1681526020018573ffffffffffffffffffffffffffffffffffffffff168152602001610bb862ffffff1681526020013073ffffffffffffffffffffffffffffffffffffffff16815260200142815260200184815260200160008152602001600073ffffffffffffffffffffffffffffffffffffffff1681525090507f000000000000000000000000000000000000000000000000000000000000000073ffffffffffffffffffffffffffffffffffffffff1663414bf389826040518263ffffffff1660e01b8152600401610a749190611a58565b6020604051808303816000875af1158015610a93573d6000803e3d6000fd5b505050506040513d601f19601f82011682018060405250810190610ab791906113ea565b9150509392505050565b600260009054906101000a900473ffffffffffffffffffffffffffffffffffffffff1673ffffffffffffffffffffffffffffffffffffffff163373ffffffffffffffffffffffffffffffffffffffff1614610b51576040517f08c379a0000000000000000000000000000000000000000000000000000000008152600401610b4890611ac0565b60405180910390fd5b8173ffffffffffffffffffffffffffffffffffffffff1663a9059cbb33836040518363ffffffff1660e01b8152600401610b8c929190611612565b6020604051808303816000875af1158015610bab573d6000803e3d6000fd5b505050506040513d601f19601f82011682018060405250810190610bcf9190611667565b505050565b60003411610c17576040517f08c379a0000000000000000000000000000000000000000000000000000000008152600401610c0e90611b2c565b60405180910390fd5b565b7f000000000000000000000000000000000000000000000000000000000000000081565b6000808473ffffffffffffffffffffffffffffffffffffffff1663a9059cbb60e01b8585604051602401610c72929190611612565b604051602081830303815290604052907bffffffffffffffffffffffffffffffffffffffffffffffffffffffff19166020820180517bffffffffffffffffffffffffffffffffffffffffffffffffffffffff8381831617835250505050604051610cdc9190611b88565b6000604051808303816000865af19150503d8060008114610d19576040519150601f19603f3d011682016040523d82523d6000602084013e610d1e565b606091505b5091509150818015610d4c5750600081511480610d4b575080806020019051810190610d4a9190611667565b5b5b610d8b576040517f08c379a0000000000000000000000000000000000000000000000000000000008152600401610d8290611beb565b60405180910390fd5b5050505050565b6000808473ffffffffffffffffffffffffffffffffffffffff1663095ea7b360e01b8585604051602401610dc7929190611612565b604051602081830303815290604052907bffffffffffffffffffffffffffffffffffffffffffffffffffffffff19166020820180517bffffffffffffffffffffffffffffffffffffffffffffffffffffffff8381831617835250505050604051610e319190611b88565b6000604051808303816000865af19150503d8060008114610e6e576040519150601f19603f3d011682016040523d82523d6000602084013e610e73565b606091505b5091509150818015610ea15750600081511480610ea0575080806020019051810190610e9f9190611667565b5b5b610ee0576040517f08c379a0000000000000000000000000000000000000000000000000000000008152600401610ed790611c57565b60405180910390fd5b5050505050565b600073ffffffffffffffffffffffffffffffffffffffff82169050919050565b6000819050919050565b6000610f2c610f27610f2284610ee7565b610f07565b610ee7565b9050919050565b6000610f3e82610f11565b9050919050565b6000610f5082610f33565b9050919050565b610f6081610f45565b82525050565b6000602082019050610f7b6000830184610f57565b92915050565b6000604051905090565b600080fd5b600080fd5b6000610fa082610ee7565b9050919050565b610fb081610f95565b8114610fbb57600080fd5b50565b600081359050610fcd81610fa7565b92915050565b6000819050919050565b610fe681610fd3565b8114610ff157600080fd5b50565b60008135905061100381610fdd565b92915050565b600080fd5b600080fd5b600080fd5b60008083601f84011261102e5761102d611009565b5b8235905067ffffffffffffffff81111561104b5761104a61100e565b5b60208301915083600182028301111561106757611066611013565b5b9250929050565b60008060008060008060a0878903121561108b5761108a610f8b565b5b600061109989828a01610fbe565b96505060206110aa89828a01610ff4565b95505060406110bb89828a01610ff4565b94505060606110cc89828a01610fbe565b935050608087013567ffffffffffffffff8111156110ed576110ec610f90565b5b6110f989828a01611018565b92509250509295509295509295565b60008115159050919050565b61111d81611108565b82525050565b60006020820190506111386000830184611114565b92915050565b60008060006060848603121561115757611156610f8b565b5b600061116586828701610fbe565b935050602061117686828701610fbe565b925050604061118786828701610ff4565b9150509250925092565b600081519050919050565b600082825260208201905092915050565b6000819050602082019050919050565b6111c681610fd3565b82525050565b60006111d883836111bd565b60208301905092915050565b6000602082019050919050565b60006111fc82611191565b611206818561119c565b9350611211836111ad565b8060005b8381101561124257815161122988826111cc565b9750611234836111e4565b925050600181019050611215565b5085935050505092915050565b6000602082019050818103600083015261126981846111f1565b905092915050565b6000806040838503121561128857611287610f8b565b5b600061129685828601610fbe565b92505060206112a785828601610ff4565b9150509250929050565b60006112bc82610f33565b9050919050565b6112cc816112b1565b82525050565b60006020820190506112e760008301846112c3565b92915050565b60006112f882610f33565b9050919050565b611308816112ed565b82525050565b600060208201905061132360008301846112ff565b92915050565b61133281610fd3565b82525050565b600060208201905061134d6000830184611329565b92915050565b600061135e82610f33565b9050919050565b61136e81611353565b82525050565b60006020820190506113896000830184611365565b92915050565b61139881610f95565b82525050565b60006060820190506113b3600083018661138f565b6113c0602083018561138f565b6113cd6040830184611329565b949350505050565b6000815190506113e481610fdd565b92915050565b600060208284031215611400576113ff610f8b565b5b600061140e848285016113d5565b91505092915050565b6000601f19601f8301169050919050565b7f4e487b7100000000000000000000000000000000000000000000000000000000600052604160045260246000fd5b61146082611417565b810181811067ffffffffffffffff8211171561147f5761147e611428565b5b80604052505050565b6000611492610f81565b905061149e8282611457565b919050565b600067ffffffffffffffff8211156114be576114bd611428565b5b602082029050602081019050919050565b60006114e26114dd846114a3565b611488565b9050808382526020820190506020840283018581111561150557611504611013565b5b835b8181101561152e578061151a88826113d5565b845260208401935050602081019050611507565b5050509392505050565b600082601f83011261154d5761154c611009565b5b815161155d8482602086016114cf565b91505092915050565b60006020828403121561157c5761157b610f8b565b5b600082015167ffffffffffffffff81111561159a57611599610f90565b5b6115a684828501611538565b91505092915050565b7f4e487b7100000000000000000000000000000000000000000000000000000000600052601160045260246000fd5b60006115e982610fd3565b91506115f483610fd3565b925082820190508082111561160c5761160b6115af565b5b92915050565b6000604082019050611627600083018561138f565b6116346020830184611329565b9392505050565b61164481611108565b811461164f57600080fd5b50565b6000815190506116618161163b565b92915050565b60006020828403121561167d5761167c610f8b565b5b600061168b84828501611652565b91505092915050565b7f4e487b7100000000000000000000000000000000000000000000000000000000600052603260045260246000fd5b6000819050919050565b60006116e86116e36116de846116c3565b610f07565b610fd3565b9050919050565b6116f8816116cd565b82525050565b600081519050919050565b600082825260208201905092915050565b6000819050602082019050919050565b61173381610f95565b82525050565b6000611745838361172a565b60208301905092915050565b6000602082019050919050565b6000611769826116fe565b6117738185611709565b935061177e8361171a565b8060005b838110156117af5781516117968882611739565b97506117a183611751565b925050600181019050611782565b5085935050505092915050565b600060a0820190506117d16000830188611329565b6117de60208301876116ef565b81810360408301526117f0818661175e565b90506117ff606083018561138f565b61180c60808301846116ef565b9695505050505050565b600082825260208201905092915050565b7f4465706f736974204661696c6564000000000000000000000000000000000000600082015250565b600061185d600e83611816565b915061186882611827565b602082019050919050565b6000602082019050818103600083015261188c81611850565b9050919050565b600081519050919050565b600082825260208201905092915050565b60005b838110156118cd5780820151818401526020810190506118b2565b60008484015250505050565b60006118e482611893565b6118ee818561189e565b93506118fe8185602086016118af565b61190781611417565b840191505092915050565b600061ffff82169050919050565b61192981611912565b82525050565b600060a082019050611944600083018861138f565b611951602083018761138f565b61195e6040830186611329565b818103606083015261197081856118d9565b905061197f6080830184611920565b9695505050505050565b600062ffffff82169050919050565b6119a181611989565b82525050565b6119b081610ee7565b82525050565b610100820160008201516119cd600085018261172a565b5060208201516119e0602085018261172a565b5060408201516119f36040850182611998565b506060820151611a06606085018261172a565b506080820151611a1960808501826111bd565b5060a0820151611a2c60a08501826111bd565b5060c0820151611a3f60c08501826111bd565b5060e0820151611a5260e08501826119a7565b50505050565b600061010082019050611a6e60008301846119b6565b92915050565b7f4f6e6c79206f776e65722063616e2077697468647261772066756e6473000000600082015250565b6000611aaa601d83611816565b9150611ab582611a74565b602082019050919050565b60006020820190508181036000830152611ad981611a9d565b9050919050565b7f43616e6e6f74206465706f7369742030206f72206c6573732077656900000000600082015250565b6000611b16601c83611816565b9150611b2182611ae0565b602082019050919050565b60006020820190508181036000830152611b4581611b09565b9050919050565b600081905092915050565b6000611b6282611893565b611b6c8185611b4c565b9350611b7c8185602086016118af565b80840191505092915050565b6000611b948284611b57565b915081905092915050565b7f5354000000000000000000000000000000000000000000000000000000000000600082015250565b6000611bd5600283611816565b9150611be082611b9f565b602082019050919050565b60006020820190508181036000830152611c0481611bc8565b9050919050565b7f5341000000000000000000000000000000000000000000000000000000000000600082015250565b6000611c41600283611816565b9150611c4c82611c0b565b602082019050919050565b60006020820190508181036000830152611c7081611c34565b905091905056fea26469706673582212207195fcab267a1f3c9f3ac3655e7eea09d16f65c384202f581900e285112e0e5164736f6c63430008110033",
  "linkReferences": {},
  "deployedLinkReferences": {}
}