{
  "_format": "hh-sol-artifact-1",
  "contractName": "FlashLoanArbitrage",
  "sourceName": "contracts/FlashLoanArbitrage.sol",
  "abi": [
    {
      "inputs": [
        {
          "internalType": "contract IPoolAddressesProvider",
          "name": "_poolAddressesProvider",
          "type": "address"
        },
        {
          "internalType": "contract ISwapRouter",
          "name": "_uniswapSwapRouter",
          "type": "address"
        }
      ],
      "stateMutability": "nonpayable",
      "type": "constructor"
    },
    {
      "inputs": [],
      "name": "ADDRESSES_PROVIDER",
      "outputs": [
        {
          "internalType": "contract IPoolAddressesProvider",
          "name": "",
          "type": "address"
        }
      ],
      "stateMutability": "view",
      "type": "function"
    },
    {
      "inputs": [],
      "name": "OWNER",
      "outputs": [
        {
          "internalType": "address",
          "name": "",
          "type": "address"
        }
      ],
      "stateMutability": "view",
      "type": "function"
    },
    {
      "inputs": [],
      "name": "POOL",
      "outputs": [
        {
          "internalType": "contract IPool",
          "name": "",
          "type": "address"
        }
      ],
      "stateMutability": "view",
      "type": "function"
    },
    {
      "inputs": [],
      "name": "UNISWAP_SWAP_ROUTER",
      "outputs": [
        {
          "internalType": "contract ISwapRouter",
          "name": "",
          "type": "address"
        }
      ],
      "stateMutability": "view",
      "type": "function"
    },
    {
      "inputs": [],
      "name": "deposit",
      "outputs": [],
      "stateMutability": "payable",
      "type": "function"
    },
    {
      "inputs": [
        {
          "internalType": "address",
          "name": "_token",
          "type": "address"
        },
        {
          "internalType": "uint256",
          "name": "_amount",
          "type": "uint256"
        }
      ],
      "name": "depositToken",
      "outputs": [],
      "stateMutability": "nonpayable",
      "type": "function"
    },
    {
      "inputs": [
        {
          "internalType": "address",
          "name": "_token0",
          "type": "address"
        },
        {
          "internalType": "address",
          "name": "_token1",
          "type": "address"
        },
        {
          "internalType": "uint256",
          "name": "_amount",
          "type": "uint256"
        }
      ],
      "name": "executeArbitrage",
      "outputs": [],
      "stateMutability": "nonpayable",
      "type": "function"
    },
    {
      "inputs": [
        {
          "internalType": "address",
          "name": "asset",
          "type": "address"
        },
        {
          "internalType": "uint256",
          "name": "amount",
          "type": "uint256"
        },
        {
          "internalType": "uint256",
          "name": "premium",
          "type": "uint256"
        },
        {
          "internalType": "address",
          "name": "initiator",
          "type": "address"
        },
        {
          "internalType": "bytes",
          "name": "params",
          "type": "bytes"
        }
      ],
      "name": "executeOperation",
      "outputs": [
        {
          "internalType": "bool",
          "name": "",
          "type": "bool"
        }
      ],
      "stateMutability": "nonpayable",
      "type": "function"
    },
    {
      "inputs": [
        {
          "internalType": "address",
          "name": "_tokenIn",
          "type": "address"
        },
        {
          "internalType": "address",
          "name": "_tokenOut",
          "type": "address"
        },
        {
          "internalType": "uint256",
          "name": "_amount",
          "type": "uint256"
        }
      ],
      "name": "uniswapSwapExactInputSingle",
      "outputs": [
        {
          "internalType": "uint256",
          "name": "amountOut",
          "type": "uint256"
        }
      ],
      "stateMutability": "nonpayable",
      "type": "function"
    },
    {
      "inputs": [
        {
          "internalType": "address",
          "name": "_token",
          "type": "address"
        },
        {
          "internalType": "uint256",
          "name": "_amount",
          "type": "uint256"
        }
      ],
      "name": "withdrawFunds",
      "outputs": [],
      "stateMutability": "nonpayable",
      "type": "function"
    }
  ],
  "bytecode": "0x60a06040523480156200001157600080fd5b506040516200175e3803806200175e83398181016040528101906200003791906200028b565b8073ffffffffffffffffffffffffffffffffffffffff1660808173ffffffffffffffffffffffffffffffffffffffff168152505081600160006101000a81548173ffffffffffffffffffffffffffffffffffffffff021916908373ffffffffffffffffffffffffffffffffffffffff160217905550600160009054906101000a900473ffffffffffffffffffffffffffffffffffffffff1673ffffffffffffffffffffffffffffffffffffffff1663026b1d5f6040518163ffffffff1660e01b8152600401602060405180830381865afa1580156200011a573d6000803e3d6000fd5b505050506040513d601f19601f8201168201806040525081019062000140919062000303565b6000806101000a81548173ffffffffffffffffffffffffffffffffffffffff021916908373ffffffffffffffffffffffffffffffffffffffff16021790555033600260006101000a81548173ffffffffffffffffffffffffffffffffffffffff021916908373ffffffffffffffffffffffffffffffffffffffff160217905550505062000335565b600080fd5b600073ffffffffffffffffffffffffffffffffffffffff82169050919050565b6000620001fa82620001cd565b9050919050565b60006200020e82620001ed565b9050919050565b620002208162000201565b81146200022c57600080fd5b50565b600081519050620002408162000215565b92915050565b60006200025382620001ed565b9050919050565b620002658162000246565b81146200027157600080fd5b50565b60008151905062000285816200025a565b92915050565b60008060408385031215620002a557620002a4620001c8565b5b6000620002b5858286016200022f565b9250506020620002c88582860162000274565b9150509250929050565b620002dd81620001ed565b8114620002e957600080fd5b50565b600081519050620002fd81620002d2565b92915050565b6000602082840312156200031c576200031b620001c8565b5b60006200032c84828501620002ec565b91505092915050565b6080516113ff6200035f600039600081816107b2015281816107dc01526108a201526113ff6000f3fe6080604052600436106100915760003560e01c80637535d246116100595780637535d2461461017b578063c1075329146101a6578063d0e30db0146101cf578063dcaa117c146101d9578063f4d037fb1461020457610091565b80630542975c14610096578063117803e3146100c15780631b11d0ff146100ec578063338b5dea14610129578063650f84be14610152575b600080fd5b3480156100a257600080fd5b506100ab610241565b6040516100b89190610b1a565b60405180910390f35b3480156100cd57600080fd5b506100d6610267565b6040516100e39190610b56565b60405180910390f35b3480156100f857600080fd5b50610113600480360381019061010e9190610c42565b61028d565b6040516101209190610cf7565b60405180910390f35b34801561013557600080fd5b50610150600480360381019061014b9190610d12565b610412565b005b34801561015e57600080fd5b5061017960048036038101906101749190610d52565b6104d5565b005b34801561018757600080fd5b50610190610634565b60405161019d9190610dc6565b60405180910390f35b3480156101b257600080fd5b506101cd60048036038101906101c89190610d12565b610658565b005b6101d761076b565b005b3480156101e557600080fd5b506101ee6107b0565b6040516101fb9190610e02565b60405180910390f35b34801561021057600080fd5b5061022b60048036038101906102269190610d52565b6107d4565b6040516102389190610e2c565b60405180910390f35b600160009054906101000a900473ffffffffffffffffffffffffffffffffffffffff1681565b600260009054906101000a900473ffffffffffffffffffffffffffffffffffffffff1681565b60003073ffffffffffffffffffffffffffffffffffffffff1663f4d037fb600360009054906101000a900473ffffffffffffffffffffffffffffffffffffffff16600460009054906101000a900473ffffffffffffffffffffffffffffffffffffffff16896040518463ffffffff1660e01b815260040161031093929190610e47565b6020604051808303816000875af115801561032f573d6000803e3d6000fd5b505050506040513d601f19601f820116820180604052508101906103539190610e93565b50600085876103629190610eef565b90508773ffffffffffffffffffffffffffffffffffffffff1663095ea7b360008054906101000a900473ffffffffffffffffffffffffffffffffffffffff16836040518363ffffffff1660e01b81526004016103bf929190610f23565b6020604051808303816000875af11580156103de573d6000803e3d6000fd5b505050506040513d601f19601f820116820180604052508101906104029190610f78565b5060019150509695505050505050565b8173ffffffffffffffffffffffffffffffffffffffff166323b872dd3330846040518463ffffffff1660e01b815260040161044f93929190610e47565b6020604051808303816000875af115801561046e573d6000803e3d6000fd5b505050506040513d601f19601f820116820180604052508101906104929190610f78565b6104d1576040517f08c379a00000000000000000000000000000000000000000000000000000000081526004016104c890611002565b60405180910390fd5b5050565b600030905083600360006101000a81548173ffffffffffffffffffffffffffffffffffffffff021916908373ffffffffffffffffffffffffffffffffffffffff16021790555082600460006101000a81548173ffffffffffffffffffffffffffffffffffffffff021916908373ffffffffffffffffffffffffffffffffffffffff160217905550600082905060006040518060200160405280600081525090506000808054906101000a900473ffffffffffffffffffffffffffffffffffffffff1673ffffffffffffffffffffffffffffffffffffffff166342b0b77c85600360009054906101000a900473ffffffffffffffffffffffffffffffffffffffff168686866040518663ffffffff1660e01b81526004016105f99594939291906110cf565b600060405180830381600087803b15801561061357600080fd5b505af1158015610627573d6000803e3d6000fd5b5050505050505050505050565b60008054906101000a900473ffffffffffffffffffffffffffffffffffffffff1681565b600260009054906101000a900473ffffffffffffffffffffffffffffffffffffffff1673ffffffffffffffffffffffffffffffffffffffff163373ffffffffffffffffffffffffffffffffffffffff16146106e8576040517f08c379a00000000000000000000000000000000000000000000000000000000081526004016106df90611175565b60405180910390fd5b8173ffffffffffffffffffffffffffffffffffffffff1663a9059cbb33836040518363ffffffff1660e01b8152600401610723929190610f23565b6020604051808303816000875af1158015610742573d6000803e3d6000fd5b505050506040513d601f19601f820116820180604052508101906107669190610f78565b505050565b600034116107ae576040517f08c379a00000000000000000000000000000000000000000000000000000000081526004016107a5906111e1565b60405180910390fd5b565b7f000000000000000000000000000000000000000000000000000000000000000081565b6000610801847f000000000000000000000000000000000000000000000000000000000000000084610946565b60006040518061010001604052808673ffffffffffffffffffffffffffffffffffffffff1681526020018573ffffffffffffffffffffffffffffffffffffffff168152602001610bb862ffffff1681526020013073ffffffffffffffffffffffffffffffffffffffff16815260200142815260200184815260200160008152602001600073ffffffffffffffffffffffffffffffffffffffff1681525090507f000000000000000000000000000000000000000000000000000000000000000073ffffffffffffffffffffffffffffffffffffffff1663414bf389826040518263ffffffff1660e01b81526004016108f991906112ee565b6020604051808303816000875af1158015610918573d6000803e3d6000fd5b505050506040513d601f19601f8201168201806040525081019061093c9190610e93565b9150509392505050565b6000808473ffffffffffffffffffffffffffffffffffffffff1663095ea7b360e01b858560405160240161097b929190610f23565b604051602081830303815290604052907bffffffffffffffffffffffffffffffffffffffffffffffffffffffff19166020820180517bffffffffffffffffffffffffffffffffffffffffffffffffffffffff83818316178352505050506040516109e59190611346565b6000604051808303816000865af19150503d8060008114610a22576040519150601f19603f3d011682016040523d82523d6000602084013e610a27565b606091505b5091509150818015610a555750600081511480610a54575080806020019051810190610a539190610f78565b5b5b610a94576040517f08c379a0000000000000000000000000000000000000000000000000000000008152600401610a8b906113a9565b60405180910390fd5b5050505050565b600073ffffffffffffffffffffffffffffffffffffffff82169050919050565b6000819050919050565b6000610ae0610adb610ad684610a9b565b610abb565b610a9b565b9050919050565b6000610af282610ac5565b9050919050565b6000610b0482610ae7565b9050919050565b610b1481610af9565b82525050565b6000602082019050610b2f6000830184610b0b565b92915050565b6000610b4082610a9b565b9050919050565b610b5081610b35565b82525050565b6000602082019050610b6b6000830184610b47565b92915050565b600080fd5b600080fd5b610b8481610b35565b8114610b8f57600080fd5b50565b600081359050610ba181610b7b565b92915050565b6000819050919050565b610bba81610ba7565b8114610bc557600080fd5b50565b600081359050610bd781610bb1565b92915050565b600080fd5b600080fd5b600080fd5b60008083601f840112610c0257610c01610bdd565b5b8235905067ffffffffffffffff811115610c1f57610c1e610be2565b5b602083019150836001820283011115610c3b57610c3a610be7565b5b9250929050565b60008060008060008060a08789031215610c5f57610c5e610b71565b5b6000610c6d89828a01610b92565b9650506020610c7e89828a01610bc8565b9550506040610c8f89828a01610bc8565b9450506060610ca089828a01610b92565b935050608087013567ffffffffffffffff811115610cc157610cc0610b76565b5b610ccd89828a01610bec565b92509250509295509295509295565b60008115159050919050565b610cf181610cdc565b82525050565b6000602082019050610d0c6000830184610ce8565b92915050565b60008060408385031215610d2957610d28610b71565b5b6000610d3785828601610b92565b9250506020610d4885828601610bc8565b9150509250929050565b600080600060608486031215610d6b57610d6a610b71565b5b6000610d7986828701610b92565b9350506020610d8a86828701610b92565b9250506040610d9b86828701610bc8565b9150509250925092565b6000610db082610ae7565b9050919050565b610dc081610da5565b82525050565b6000602082019050610ddb6000830184610db7565b92915050565b6000610dec82610ae7565b9050919050565b610dfc81610de1565b82525050565b6000602082019050610e176000830184610df3565b92915050565b610e2681610ba7565b82525050565b6000602082019050610e416000830184610e1d565b92915050565b6000606082019050610e5c6000830186610b47565b610e696020830185610b47565b610e766040830184610e1d565b949350505050565b600081519050610e8d81610bb1565b92915050565b600060208284031215610ea957610ea8610b71565b5b6000610eb784828501610e7e565b91505092915050565b7f4e487b7100000000000000000000000000000000000000000000000000000000600052601160045260246000fd5b6000610efa82610ba7565b9150610f0583610ba7565b9250828201905080821115610f1d57610f1c610ec0565b5b92915050565b6000604082019050610f386000830185610b47565b610f456020830184610e1d565b9392505050565b610f5581610cdc565b8114610f6057600080fd5b50565b600081519050610f7281610f4c565b92915050565b600060208284031215610f8e57610f8d610b71565b5b6000610f9c84828501610f63565b91505092915050565b600082825260208201905092915050565b7f4465706f736974204661696c6564000000000000000000000000000000000000600082015250565b6000610fec600e83610fa5565b9150610ff782610fb6565b602082019050919050565b6000602082019050818103600083015261101b81610fdf565b9050919050565b600081519050919050565b600082825260208201905092915050565b60005b8381101561105c578082015181840152602081019050611041565b60008484015250505050565b6000601f19601f8301169050919050565b600061108482611022565b61108e818561102d565b935061109e81856020860161103e565b6110a781611068565b840191505092915050565b600061ffff82169050919050565b6110c9816110b2565b82525050565b600060a0820190506110e46000830188610b47565b6110f16020830187610b47565b6110fe6040830186610e1d565b81810360608301526111108185611079565b905061111f60808301846110c0565b9695505050505050565b7f4f6e6c79206f776e65722063616e2077697468647261772066756e6473000000600082015250565b600061115f601d83610fa5565b915061116a82611129565b602082019050919050565b6000602082019050818103600083015261118e81611152565b9050919050565b7f43616e6e6f74206465706f7369742030206f72206c6573732077656900000000600082015250565b60006111cb601c83610fa5565b91506111d682611195565b602082019050919050565b600060208201905081810360008301526111fa816111be565b9050919050565b61120a81610b35565b82525050565b600062ffffff82169050919050565b61122881611210565b82525050565b61123781610ba7565b82525050565b61124681610a9b565b82525050565b610100820160008201516112636000850182611201565b5060208201516112766020850182611201565b506040820151611289604085018261121f565b50606082015161129c6060850182611201565b5060808201516112af608085018261122e565b5060a08201516112c260a085018261122e565b5060c08201516112d560c085018261122e565b5060e08201516112e860e085018261123d565b50505050565b600061010082019050611304600083018461124c565b92915050565b600081905092915050565b600061132082611022565b61132a818561130a565b935061133a81856020860161103e565b80840191505092915050565b60006113528284611315565b915081905092915050565b7f5341000000000000000000000000000000000000000000000000000000000000600082015250565b6000611393600283610fa5565b915061139e8261135d565b602082019050919050565b600060208201905081810360008301526113c281611386565b905091905056fea264697066735822122076eae25e4b9c467a68d04021bc596013a38feb166a5c7e09933d7244c8f0fcb564736f6c63430008110033",
  "linkReferences": {},
  "deployedLinkReferences": {}
}