{
  "_format": "hh-sol-artifact-1",
  "contractName": "FlashLoanArbitrage",
  "sourceName": "contracts/FlashLoanArbitrage.sol",
  "abi": [
    {
      "inputs": [
        {
          "internalType": "contract IPoolAddressesProvider",
          "name": "_poolAddressesProvider",
          "type": "address"
        },
        {
          "internalType": "contract ISwapRouter",
          "name": "_uniswapSwapRouter",
          "type": "address"
        },
        {
          "internalType": "contract IUniswapV2Router02",
          "name": "_sushiswapSwapRouter",
          "type": "address"
        }
      ],
      "stateMutability": "nonpayable",
      "type": "constructor"
    },
    {
      "inputs": [],
      "name": "ADDRESSES_PROVIDER",
      "outputs": [
        {
          "internalType": "contract IPoolAddressesProvider",
          "name": "",
          "type": "address"
        }
      ],
      "stateMutability": "view",
      "type": "function"
    },
    {
      "inputs": [],
      "name": "POOL",
      "outputs": [
        {
          "internalType": "contract IPool",
          "name": "",
          "type": "address"
        }
      ],
      "stateMutability": "view",
      "type": "function"
    },
    {
      "inputs": [],
      "name": "SUSHISWAP_SWAP_ROUTER",
      "outputs": [
        {
          "internalType": "contract IUniswapV2Router02",
          "name": "",
          "type": "address"
        }
      ],
      "stateMutability": "view",
      "type": "function"
    },
    {
      "inputs": [],
      "name": "UNISWAP_SWAP_ROUTER",
      "outputs": [
        {
          "internalType": "contract ISwapRouter",
          "name": "",
          "type": "address"
        }
      ],
      "stateMutability": "view",
      "type": "function"
    },
    {
      "inputs": [],
      "name": "deposit",
      "outputs": [],
      "stateMutability": "payable",
      "type": "function"
    },
    {
      "inputs": [
        {
          "internalType": "address",
          "name": "_token",
          "type": "address"
        },
        {
          "internalType": "uint256",
          "name": "_amount",
          "type": "uint256"
        }
      ],
      "name": "depositToken",
      "outputs": [],
      "stateMutability": "nonpayable",
      "type": "function"
    },
    {
      "inputs": [
        {
          "internalType": "address",
          "name": "_token0",
          "type": "address"
        },
        {
          "internalType": "address",
          "name": "_token1",
          "type": "address"
        },
        {
          "internalType": "uint256",
          "name": "_amount",
          "type": "uint256"
        }
      ],
      "name": "executeArbitrage",
      "outputs": [],
      "stateMutability": "nonpayable",
      "type": "function"
    },
    {
      "inputs": [
        {
          "internalType": "address",
          "name": "asset",
          "type": "address"
        },
        {
          "internalType": "uint256",
          "name": "amount",
          "type": "uint256"
        },
        {
          "internalType": "uint256",
          "name": "premium",
          "type": "uint256"
        },
        {
          "internalType": "address",
          "name": "initiator",
          "type": "address"
        },
        {
          "internalType": "bytes",
          "name": "params",
          "type": "bytes"
        }
      ],
      "name": "executeOperation",
      "outputs": [
        {
          "internalType": "bool",
          "name": "",
          "type": "bool"
        }
      ],
      "stateMutability": "nonpayable",
      "type": "function"
    },
    {
      "inputs": [
        {
          "internalType": "address",
          "name": "_tokenIn",
          "type": "address"
        },
        {
          "internalType": "address",
          "name": "_tokenOut",
          "type": "address"
        },
        {
          "internalType": "uint256",
          "name": "_amount",
          "type": "uint256"
        }
      ],
      "name": "sushiswapSwap",
      "outputs": [
        {
          "internalType": "uint256[]",
          "name": "amounts",
          "type": "uint256[]"
        }
      ],
      "stateMutability": "nonpayable",
      "type": "function"
    },
    {
      "inputs": [
        {
          "internalType": "address",
          "name": "_tokenIn",
          "type": "address"
        },
        {
          "internalType": "address",
          "name": "_tokenOut",
          "type": "address"
        },
        {
          "internalType": "uint256",
          "name": "_amount",
          "type": "uint256"
        }
      ],
      "name": "uniswapSwap",
      "outputs": [
        {
          "internalType": "uint256",
          "name": "amountOut",
          "type": "uint256"
        }
      ],
      "stateMutability": "nonpayable",
      "type": "function"
    },
    {
      "inputs": [
        {
          "internalType": "address",
          "name": "_token",
          "type": "address"
        },
        {
          "internalType": "uint256",
          "name": "_amount",
          "type": "uint256"
        }
      ],
      "name": "withdrawFunds",
      "outputs": [],
      "stateMutability": "nonpayable",
      "type": "function"
    }
  ],
  "bytecode": "0x60c06040523480156200001157600080fd5b506040516200207538038062002075833981810160405281019062000037919062000305565b8173ffffffffffffffffffffffffffffffffffffffff1660808173ffffffffffffffffffffffffffffffffffffffff168152505082600160006101000a81548173ffffffffffffffffffffffffffffffffffffffff021916908373ffffffffffffffffffffffffffffffffffffffff1602179055508073ffffffffffffffffffffffffffffffffffffffff1660a08173ffffffffffffffffffffffffffffffffffffffff1681525050600160009054906101000a900473ffffffffffffffffffffffffffffffffffffffff1673ffffffffffffffffffffffffffffffffffffffff1663026b1d5f6040518163ffffffff1660e01b8152600401602060405180830381865afa1580156200014e573d6000803e3d6000fd5b505050506040513d601f19601f8201168201806040525081019062000174919062000392565b6000806101000a81548173ffffffffffffffffffffffffffffffffffffffff021916908373ffffffffffffffffffffffffffffffffffffffff16021790555033600260006101000a81548173ffffffffffffffffffffffffffffffffffffffff021916908373ffffffffffffffffffffffffffffffffffffffff160217905550505050620003c4565b600080fd5b600073ffffffffffffffffffffffffffffffffffffffff82169050919050565b60006200022f8262000202565b9050919050565b6000620002438262000222565b9050919050565b620002558162000236565b81146200026157600080fd5b50565b60008151905062000275816200024a565b92915050565b6000620002888262000222565b9050919050565b6200029a816200027b565b8114620002a657600080fd5b50565b600081519050620002ba816200028f565b92915050565b6000620002cd8262000222565b9050919050565b620002df81620002c0565b8114620002eb57600080fd5b50565b600081519050620002ff81620002d4565b92915050565b600080600060608486031215620003215762000320620001fd565b5b6000620003318682870162000264565b93505060206200034486828701620002a9565b92505060406200035786828701620002ee565b9150509250925092565b6200036c8162000222565b81146200037857600080fd5b50565b6000815190506200038c8162000361565b92915050565b600060208284031215620003ab57620003aa620001fd565b5b6000620003bb848285016200037b565b91505092915050565b60805160a051611c76620003ff6000396000818161051401528181610627015261079f0152600081816109e60152610be40152611c766000f3fe60806040526004361061009c5760003560e01c8063650f84be11610064578063650f84be1461019a5780637535d246146101c3578063996ee3e8146101ee578063c10753291461022b578063d0e30db014610254578063dcaa117c1461025e5761009c565b80630542975c146100a15780631b11d0ff146100cc5780632c9a1a1c14610109578063338b5dea146101465780634a3b87201461016f575b600080fd5b3480156100ad57600080fd5b506100b6610289565b6040516100c39190610f2f565b60405180910390f35b3480156100d857600080fd5b506100f360048036038101906100ee9190611037565b6102af565b60405161010091906110ec565b60405180910390f35b34801561011557600080fd5b50610130600480360381019061012b9190611107565b610501565b60405161013d9190611218565b60405180910390f35b34801561015257600080fd5b5061016d6004803603810190610168919061123a565b6106da565b005b34801561017b57600080fd5b5061018461079d565b604051610191919061129b565b60405180910390f35b3480156101a657600080fd5b506101c160048036038101906101bc9190611107565b6107c1565b005b3480156101cf57600080fd5b506101d8610920565b6040516101e591906112d7565b60405180910390f35b3480156101fa57600080fd5b5061021560048036038101906102109190611107565b610944565b6040516102229190611301565b60405180910390f35b34801561023757600080fd5b50610252600480360381019061024d919061123a565b610a8a565b005b61025c610b9d565b005b34801561026a57600080fd5b50610273610be2565b604051610280919061133d565b60405180910390f35b600160009054906101000a900473ffffffffffffffffffffffffffffffffffffffff1681565b6000803073ffffffffffffffffffffffffffffffffffffffff1663996ee3e8600360009054906101000a900473ffffffffffffffffffffffffffffffffffffffff16600460009054906101000a900473ffffffffffffffffffffffffffffffffffffffff168a6040518463ffffffff1660e01b815260040161033393929190611367565b6020604051808303816000875af1158015610352573d6000803e3d6000fd5b505050506040513d601f19601f8201168201806040525081019061037691906113b3565b90503073ffffffffffffffffffffffffffffffffffffffff16632c9a1a1c600460009054906101000a900473ffffffffffffffffffffffffffffffffffffffff16600360009054906101000a900473ffffffffffffffffffffffffffffffffffffffff16846040518463ffffffff1660e01b81526004016103f993929190611367565b6000604051808303816000875af1158015610418573d6000803e3d6000fd5b505050506040513d6000823e3d601f19601f82011682018060405250810190610441919061152f565b506000868861045091906115a7565b90508873ffffffffffffffffffffffffffffffffffffffff1663095ea7b360008054906101000a900473ffffffffffffffffffffffffffffffffffffffff16836040518363ffffffff1660e01b81526004016104ad9291906115db565b6020604051808303816000875af11580156104cc573d6000803e3d6000fd5b505050506040513d601f19601f820116820180604052508101906104f09190611630565b506001925050509695505050505050565b606061050e843084610c06565b610539847f000000000000000000000000000000000000000000000000000000000000000084610d5b565b6000600267ffffffffffffffff811115610556576105556113f1565b5b6040519080825280602002602001820160405280156105845781602001602082028036833780820191505090505b509050848160008151811061059c5761059b61165d565b5b602002602001019073ffffffffffffffffffffffffffffffffffffffff16908173ffffffffffffffffffffffffffffffffffffffff168152505083816001815181106105eb576105ea61165d565b5b602002602001019073ffffffffffffffffffffffffffffffffffffffff16908173ffffffffffffffffffffffffffffffffffffffff16815250507f000000000000000000000000000000000000000000000000000000000000000073ffffffffffffffffffffffffffffffffffffffff166338ed1739846000843060006040518663ffffffff1660e01b8152600401610688959493929190611785565b6000604051808303816000875af11580156106a7573d6000803e3d6000fd5b505050506040513d6000823e3d601f19601f820116820180604052508101906106d0919061152f565b9150509392505050565b8173ffffffffffffffffffffffffffffffffffffffff166323b872dd3330846040518463ffffffff1660e01b815260040161071793929190611367565b6020604051808303816000875af1158015610736573d6000803e3d6000fd5b505050506040513d601f19601f8201168201806040525081019061075a9190611630565b610799576040517f08c379a00000000000000000000000000000000000000000000000000000000081526004016107909061183c565b60405180910390fd5b5050565b7f000000000000000000000000000000000000000000000000000000000000000081565b600030905083600360006101000a81548173ffffffffffffffffffffffffffffffffffffffff021916908373ffffffffffffffffffffffffffffffffffffffff16021790555082600460006101000a81548173ffffffffffffffffffffffffffffffffffffffff021916908373ffffffffffffffffffffffffffffffffffffffff160217905550600082905060006040518060200160405280600081525090506000808054906101000a900473ffffffffffffffffffffffffffffffffffffffff1673ffffffffffffffffffffffffffffffffffffffff166342b0b77c85600360009054906101000a900473ffffffffffffffffffffffffffffffffffffffff168686866040518663ffffffff1660e01b81526004016108e59594939291906118f8565b600060405180830381600087803b1580156108ff57600080fd5b505af1158015610913573d6000803e3d6000fd5b5050505050505050505050565b60008054906101000a900473ffffffffffffffffffffffffffffffffffffffff1681565b6000806040518061010001604052808673ffffffffffffffffffffffffffffffffffffffff1681526020018573ffffffffffffffffffffffffffffffffffffffff168152602001610bb862ffffff1681526020013073ffffffffffffffffffffffffffffffffffffffff16815260200142815260200184815260200160008152602001600073ffffffffffffffffffffffffffffffffffffffff1681525090507f000000000000000000000000000000000000000000000000000000000000000073ffffffffffffffffffffffffffffffffffffffff1663414bf389826040518263ffffffff1660e01b8152600401610a3d9190611a21565b6020604051808303816000875af1158015610a5c573d6000803e3d6000fd5b505050506040513d601f19601f82011682018060405250810190610a8091906113b3565b9150509392505050565b600260009054906101000a900473ffffffffffffffffffffffffffffffffffffffff1673ffffffffffffffffffffffffffffffffffffffff163373ffffffffffffffffffffffffffffffffffffffff1614610b1a576040517f08c379a0000000000000000000000000000000000000000000000000000000008152600401610b1190611a89565b60405180910390fd5b8173ffffffffffffffffffffffffffffffffffffffff1663a9059cbb33836040518363ffffffff1660e01b8152600401610b559291906115db565b6020604051808303816000875af1158015610b74573d6000803e3d6000fd5b505050506040513d601f19601f82011682018060405250810190610b989190611630565b505050565b60003411610be0576040517f08c379a0000000000000000000000000000000000000000000000000000000008152600401610bd790611af5565b60405180910390fd5b565b7f000000000000000000000000000000000000000000000000000000000000000081565b6000808473ffffffffffffffffffffffffffffffffffffffff1663a9059cbb60e01b8585604051602401610c3b9291906115db565b604051602081830303815290604052907bffffffffffffffffffffffffffffffffffffffffffffffffffffffff19166020820180517bffffffffffffffffffffffffffffffffffffffffffffffffffffffff8381831617835250505050604051610ca59190611b51565b6000604051808303816000865af19150503d8060008114610ce2576040519150601f19603f3d011682016040523d82523d6000602084013e610ce7565b606091505b5091509150818015610d155750600081511480610d14575080806020019051810190610d139190611630565b5b5b610d54576040517f08c379a0000000000000000000000000000000000000000000000000000000008152600401610d4b90611bb4565b60405180910390fd5b5050505050565b6000808473ffffffffffffffffffffffffffffffffffffffff1663095ea7b360e01b8585604051602401610d909291906115db565b604051602081830303815290604052907bffffffffffffffffffffffffffffffffffffffffffffffffffffffff19166020820180517bffffffffffffffffffffffffffffffffffffffffffffffffffffffff8381831617835250505050604051610dfa9190611b51565b6000604051808303816000865af19150503d8060008114610e37576040519150601f19603f3d011682016040523d82523d6000602084013e610e3c565b606091505b5091509150818015610e6a5750600081511480610e69575080806020019051810190610e689190611630565b5b5b610ea9576040517f08c379a0000000000000000000000000000000000000000000000000000000008152600401610ea090611c20565b60405180910390fd5b5050505050565b600073ffffffffffffffffffffffffffffffffffffffff82169050919050565b6000819050919050565b6000610ef5610ef0610eeb84610eb0565b610ed0565b610eb0565b9050919050565b6000610f0782610eda565b9050919050565b6000610f1982610efc565b9050919050565b610f2981610f0e565b82525050565b6000602082019050610f446000830184610f20565b92915050565b6000604051905090565b600080fd5b600080fd5b6000610f6982610eb0565b9050919050565b610f7981610f5e565b8114610f8457600080fd5b50565b600081359050610f9681610f70565b92915050565b6000819050919050565b610faf81610f9c565b8114610fba57600080fd5b50565b600081359050610fcc81610fa6565b92915050565b600080fd5b600080fd5b600080fd5b60008083601f840112610ff757610ff6610fd2565b5b8235905067ffffffffffffffff81111561101457611013610fd7565b5b6020830191508360018202830111156110305761102f610fdc565b5b9250929050565b60008060008060008060a0878903121561105457611053610f54565b5b600061106289828a01610f87565b965050602061107389828a01610fbd565b955050604061108489828a01610fbd565b945050606061109589828a01610f87565b935050608087013567ffffffffffffffff8111156110b6576110b5610f59565b5b6110c289828a01610fe1565b92509250509295509295509295565b60008115159050919050565b6110e6816110d1565b82525050565b600060208201905061110160008301846110dd565b92915050565b6000806000606084860312156111205761111f610f54565b5b600061112e86828701610f87565b935050602061113f86828701610f87565b925050604061115086828701610fbd565b9150509250925092565b600081519050919050565b600082825260208201905092915050565b6000819050602082019050919050565b61118f81610f9c565b82525050565b60006111a18383611186565b60208301905092915050565b6000602082019050919050565b60006111c58261115a565b6111cf8185611165565b93506111da83611176565b8060005b8381101561120b5781516111f28882611195565b97506111fd836111ad565b9250506001810190506111de565b5085935050505092915050565b6000602082019050818103600083015261123281846111ba565b905092915050565b6000806040838503121561125157611250610f54565b5b600061125f85828601610f87565b925050602061127085828601610fbd565b9150509250929050565b600061128582610efc565b9050919050565b6112958161127a565b82525050565b60006020820190506112b0600083018461128c565b92915050565b60006112c182610efc565b9050919050565b6112d1816112b6565b82525050565b60006020820190506112ec60008301846112c8565b92915050565b6112fb81610f9c565b82525050565b600060208201905061131660008301846112f2565b92915050565b600061132782610efc565b9050919050565b6113378161131c565b82525050565b6000602082019050611352600083018461132e565b92915050565b61136181610f5e565b82525050565b600060608201905061137c6000830186611358565b6113896020830185611358565b61139660408301846112f2565b949350505050565b6000815190506113ad81610fa6565b92915050565b6000602082840312156113c9576113c8610f54565b5b60006113d78482850161139e565b91505092915050565b6000601f19601f8301169050919050565b7f4e487b7100000000000000000000000000000000000000000000000000000000600052604160045260246000fd5b611429826113e0565b810181811067ffffffffffffffff82111715611448576114476113f1565b5b80604052505050565b600061145b610f4a565b90506114678282611420565b919050565b600067ffffffffffffffff821115611487576114866113f1565b5b602082029050602081019050919050565b60006114ab6114a68461146c565b611451565b905080838252602082019050602084028301858111156114ce576114cd610fdc565b5b835b818110156114f757806114e3888261139e565b8452602084019350506020810190506114d0565b5050509392505050565b600082601f83011261151657611515610fd2565b5b8151611526848260208601611498565b91505092915050565b60006020828403121561154557611544610f54565b5b600082015167ffffffffffffffff81111561156357611562610f59565b5b61156f84828501611501565b91505092915050565b7f4e487b7100000000000000000000000000000000000000000000000000000000600052601160045260246000fd5b60006115b282610f9c565b91506115bd83610f9c565b92508282019050808211156115d5576115d4611578565b5b92915050565b60006040820190506115f06000830185611358565b6115fd60208301846112f2565b9392505050565b61160d816110d1565b811461161857600080fd5b50565b60008151905061162a81611604565b92915050565b60006020828403121561164657611645610f54565b5b60006116548482850161161b565b91505092915050565b7f4e487b7100000000000000000000000000000000000000000000000000000000600052603260045260246000fd5b6000819050919050565b60006116b16116ac6116a78461168c565b610ed0565b610f9c565b9050919050565b6116c181611696565b82525050565b600081519050919050565b600082825260208201905092915050565b6000819050602082019050919050565b6116fc81610f5e565b82525050565b600061170e83836116f3565b60208301905092915050565b6000602082019050919050565b6000611732826116c7565b61173c81856116d2565b9350611747836116e3565b8060005b8381101561177857815161175f8882611702565b975061176a8361171a565b92505060018101905061174b565b5085935050505092915050565b600060a08201905061179a60008301886112f2565b6117a760208301876116b8565b81810360408301526117b98186611727565b90506117c86060830185611358565b6117d560808301846116b8565b9695505050505050565b600082825260208201905092915050565b7f4465706f736974204661696c6564000000000000000000000000000000000000600082015250565b6000611826600e836117df565b9150611831826117f0565b602082019050919050565b6000602082019050818103600083015261185581611819565b9050919050565b600081519050919050565b600082825260208201905092915050565b60005b8381101561189657808201518184015260208101905061187b565b60008484015250505050565b60006118ad8261185c565b6118b78185611867565b93506118c7818560208601611878565b6118d0816113e0565b840191505092915050565b600061ffff82169050919050565b6118f2816118db565b82525050565b600060a08201905061190d6000830188611358565b61191a6020830187611358565b61192760408301866112f2565b818103606083015261193981856118a2565b905061194860808301846118e9565b9695505050505050565b600062ffffff82169050919050565b61196a81611952565b82525050565b61197981610eb0565b82525050565b6101008201600082015161199660008501826116f3565b5060208201516119a960208501826116f3565b5060408201516119bc6040850182611961565b5060608201516119cf60608501826116f3565b5060808201516119e26080850182611186565b5060a08201516119f560a0850182611186565b5060c0820151611a0860c0850182611186565b5060e0820151611a1b60e0850182611970565b50505050565b600061010082019050611a37600083018461197f565b92915050565b7f4f6e6c79206f776e65722063616e2077697468647261772066756e6473000000600082015250565b6000611a73601d836117df565b9150611a7e82611a3d565b602082019050919050565b60006020820190508181036000830152611aa281611a66565b9050919050565b7f43616e6e6f74206465706f7369742030206f72206c6573732077656900000000600082015250565b6000611adf601c836117df565b9150611aea82611aa9565b602082019050919050565b60006020820190508181036000830152611b0e81611ad2565b9050919050565b600081905092915050565b6000611b2b8261185c565b611b358185611b15565b9350611b45818560208601611878565b80840191505092915050565b6000611b5d8284611b20565b915081905092915050565b7f5354000000000000000000000000000000000000000000000000000000000000600082015250565b6000611b9e6002836117df565b9150611ba982611b68565b602082019050919050565b60006020820190508181036000830152611bcd81611b91565b9050919050565b7f5341000000000000000000000000000000000000000000000000000000000000600082015250565b6000611c0a6002836117df565b9150611c1582611bd4565b602082019050919050565b60006020820190508181036000830152611c3981611bfd565b905091905056fea26469706673582212207bc1b0f5810159a4595ebc4076460102fb4093865857d0809c7f9544da95e5e564736f6c63430008110033",
  "linkReferences": {},
  "deployedLinkReferences": {}
}