{
  "_format": "hh-sol-artifact-1",
  "contractName": "FlashLoanArbitrage",
  "sourceName": "contracts/FlashLoanArbitrage.sol",
  "abi": [
    {
      "inputs": [
        {
          "internalType": "address",
          "name": "_poolAddressesProvider",
          "type": "address"
        }
      ],
      "stateMutability": "nonpayable",
      "type": "constructor"
    },
    {
      "inputs": [],
      "name": "ADDRESSES_PROVIDER",
      "outputs": [
        {
          "internalType": "contract IPoolAddressesProvider",
          "name": "",
          "type": "address"
        }
      ],
      "stateMutability": "view",
      "type": "function"
    },
    {
      "inputs": [],
      "name": "OWNER",
      "outputs": [
        {
          "internalType": "address",
          "name": "",
          "type": "address"
        }
      ],
      "stateMutability": "view",
      "type": "function"
    },
    {
      "inputs": [],
      "name": "POOL",
      "outputs": [
        {
          "internalType": "contract IPool",
          "name": "",
          "type": "address"
        }
      ],
      "stateMutability": "view",
      "type": "function"
    },
    {
      "inputs": [
        {
          "internalType": "address",
          "name": "_token0",
          "type": "address"
        },
        {
          "internalType": "address",
          "name": "_token1",
          "type": "address"
        },
        {
          "internalType": "uint256",
          "name": "_amount",
          "type": "uint256"
        }
      ],
      "name": "executeArbitrage",
      "outputs": [],
      "stateMutability": "nonpayable",
      "type": "function"
    },
    {
      "inputs": [
        {
          "internalType": "address",
          "name": "asset",
          "type": "address"
        },
        {
          "internalType": "uint256",
          "name": "amount",
          "type": "uint256"
        },
        {
          "internalType": "uint256",
          "name": "premium",
          "type": "uint256"
        },
        {
          "internalType": "address",
          "name": "initiator",
          "type": "address"
        },
        {
          "internalType": "bytes",
          "name": "params",
          "type": "bytes"
        }
      ],
      "name": "executeOperation",
      "outputs": [
        {
          "internalType": "bool",
          "name": "",
          "type": "bool"
        }
      ],
      "stateMutability": "nonpayable",
      "type": "function"
    },
    {
      "inputs": [
        {
          "internalType": "address",
          "name": "_token",
          "type": "address"
        },
        {
          "internalType": "uint256",
          "name": "_amount",
          "type": "uint256"
        }
      ],
      "name": "fund",
      "outputs": [],
      "stateMutability": "nonpayable",
      "type": "function"
    },
    {
      "inputs": [
        {
          "internalType": "address",
          "name": "_token",
          "type": "address"
        },
        {
          "internalType": "uint256",
          "name": "_amount",
          "type": "uint256"
        }
      ],
      "name": "withdrawFunds",
      "outputs": [],
      "stateMutability": "nonpayable",
      "type": "function"
    }
  ],
  "bytecode": "0x608060405234801561001057600080fd5b50604051610dda380380610dda833981810160405281019061003291906101ed565b80600160006101000a81548173ffffffffffffffffffffffffffffffffffffffff021916908373ffffffffffffffffffffffffffffffffffffffff160217905550600160009054906101000a900473ffffffffffffffffffffffffffffffffffffffff1673ffffffffffffffffffffffffffffffffffffffff1663026b1d5f6040518163ffffffff1660e01b8152600401602060405180830381865afa1580156100e0573d6000803e3d6000fd5b505050506040513d601f19601f8201168201806040525081019061010491906101ed565b6000806101000a81548173ffffffffffffffffffffffffffffffffffffffff021916908373ffffffffffffffffffffffffffffffffffffffff16021790555033600260006101000a81548173ffffffffffffffffffffffffffffffffffffffff021916908373ffffffffffffffffffffffffffffffffffffffff1602179055505061021a565b600080fd5b600073ffffffffffffffffffffffffffffffffffffffff82169050919050565b60006101ba8261018f565b9050919050565b6101ca816101af565b81146101d557600080fd5b50565b6000815190506101e7816101c1565b92915050565b6000602082840312156102035761020261018a565b5b6000610211848285016101d8565b91505092915050565b610bb1806102296000396000f3fe608060405234801561001057600080fd5b506004361061007d5760003560e01c8063650f84be1161005b578063650f84be146100ee5780637535d2461461010a5780637b1837de14610128578063c1075329146101445761007d565b80630542975c14610082578063117803e3146100a05780631b11d0ff146100be575b600080fd5b61008a610160565b6040516100979190610605565b60405180910390f35b6100a8610186565b6040516100b59190610641565b60405180910390f35b6100d860048036038101906100d3919061072d565b6101ac565b6040516100e591906107e2565b60405180910390f35b610108600480360381019061010391906107fd565b61026b565b005b6101126103ca565b60405161011f9190610871565b60405180910390f35b610142600480360381019061013d919061088c565b6103ee565b005b61015e6004803603810190610159919061088c565b610473565b005b600160009054906101000a900473ffffffffffffffffffffffffffffffffffffffff1681565b600260009054906101000a900473ffffffffffffffffffffffffffffffffffffffff1681565b60008085876101bb91906108fb565b90508773ffffffffffffffffffffffffffffffffffffffff1663095ea7b360008054906101000a900473ffffffffffffffffffffffffffffffffffffffff16836040518363ffffffff1660e01b815260040161021892919061093e565b6020604051808303816000875af1158015610237573d6000803e3d6000fd5b505050506040513d601f19601f8201168201806040525081019061025b9190610993565b5060019150509695505050505050565b600030905083600360006101000a81548173ffffffffffffffffffffffffffffffffffffffff021916908373ffffffffffffffffffffffffffffffffffffffff16021790555082600460006101000a81548173ffffffffffffffffffffffffffffffffffffffff021916908373ffffffffffffffffffffffffffffffffffffffff160217905550600082905060006040518060200160405280600081525090506000808054906101000a900473ffffffffffffffffffffffffffffffffffffffff1673ffffffffffffffffffffffffffffffffffffffff166342b0b77c85600360009054906101000a900473ffffffffffffffffffffffffffffffffffffffff168686866040518663ffffffff1660e01b815260040161038f959493929190610a6d565b600060405180830381600087803b1580156103a957600080fd5b505af11580156103bd573d6000803e3d6000fd5b5050505050505050505050565b60008054906101000a900473ffffffffffffffffffffffffffffffffffffffff1681565b8173ffffffffffffffffffffffffffffffffffffffff166323b872dd3330846040518463ffffffff1660e01b815260040161042b93929190610ac7565b6020604051808303816000875af115801561044a573d6000803e3d6000fd5b505050506040513d601f19601f8201168201806040525081019061046e9190610993565b505050565b600260009054906101000a900473ffffffffffffffffffffffffffffffffffffffff1673ffffffffffffffffffffffffffffffffffffffff163373ffffffffffffffffffffffffffffffffffffffff1614610503576040517f08c379a00000000000000000000000000000000000000000000000000000000081526004016104fa90610b5b565b60405180910390fd5b8173ffffffffffffffffffffffffffffffffffffffff1663a9059cbb33836040518363ffffffff1660e01b815260040161053e92919061093e565b6020604051808303816000875af115801561055d573d6000803e3d6000fd5b505050506040513d601f19601f820116820180604052508101906105819190610993565b505050565b600073ffffffffffffffffffffffffffffffffffffffff82169050919050565b6000819050919050565b60006105cb6105c66105c184610586565b6105a6565b610586565b9050919050565b60006105dd826105b0565b9050919050565b60006105ef826105d2565b9050919050565b6105ff816105e4565b82525050565b600060208201905061061a60008301846105f6565b92915050565b600061062b82610586565b9050919050565b61063b81610620565b82525050565b60006020820190506106566000830184610632565b92915050565b600080fd5b600080fd5b61066f81610620565b811461067a57600080fd5b50565b60008135905061068c81610666565b92915050565b6000819050919050565b6106a581610692565b81146106b057600080fd5b50565b6000813590506106c28161069c565b92915050565b600080fd5b600080fd5b600080fd5b60008083601f8401126106ed576106ec6106c8565b5b8235905067ffffffffffffffff81111561070a576107096106cd565b5b602083019150836001820283011115610726576107256106d2565b5b9250929050565b60008060008060008060a0878903121561074a5761074961065c565b5b600061075889828a0161067d565b965050602061076989828a016106b3565b955050604061077a89828a016106b3565b945050606061078b89828a0161067d565b935050608087013567ffffffffffffffff8111156107ac576107ab610661565b5b6107b889828a016106d7565b92509250509295509295509295565b60008115159050919050565b6107dc816107c7565b82525050565b60006020820190506107f760008301846107d3565b92915050565b6000806000606084860312156108165761081561065c565b5b60006108248682870161067d565b93505060206108358682870161067d565b9250506040610846868287016106b3565b9150509250925092565b600061085b826105d2565b9050919050565b61086b81610850565b82525050565b60006020820190506108866000830184610862565b92915050565b600080604083850312156108a3576108a261065c565b5b60006108b18582860161067d565b92505060206108c2858286016106b3565b9150509250929050565b7f4e487b7100000000000000000000000000000000000000000000000000000000600052601160045260246000fd5b600061090682610692565b915061091183610692565b9250828201905080821115610929576109286108cc565b5b92915050565b61093881610692565b82525050565b60006040820190506109536000830185610632565b610960602083018461092f565b9392505050565b610970816107c7565b811461097b57600080fd5b50565b60008151905061098d81610967565b92915050565b6000602082840312156109a9576109a861065c565b5b60006109b78482850161097e565b91505092915050565b600081519050919050565b600082825260208201905092915050565b60005b838110156109fa5780820151818401526020810190506109df565b60008484015250505050565b6000601f19601f8301169050919050565b6000610a22826109c0565b610a2c81856109cb565b9350610a3c8185602086016109dc565b610a4581610a06565b840191505092915050565b600061ffff82169050919050565b610a6781610a50565b82525050565b600060a082019050610a826000830188610632565b610a8f6020830187610632565b610a9c604083018661092f565b8181036060830152610aae8185610a17565b9050610abd6080830184610a5e565b9695505050505050565b6000606082019050610adc6000830186610632565b610ae96020830185610632565b610af6604083018461092f565b949350505050565b600082825260208201905092915050565b7f4f6e6c79206f776e65722063616e2077697468647261772066756e6473000000600082015250565b6000610b45601d83610afe565b9150610b5082610b0f565b602082019050919050565b60006020820190508181036000830152610b7481610b38565b905091905056fea2646970667358221220d60cbdd7c82c3c4bb81da0c8457168862ee2e03425097fa7fc2ebac84126b12364736f6c63430008110033",
  "linkReferences": {},
  "deployedLinkReferences": {}
}