{
  "_format": "hh-sol-artifact-1",
  "contractName": "FlashLoanArbitrage",
  "sourceName": "contracts/FlashLoanArbitrage.sol",
  "abi": [
    {
      "inputs": [
        {
          "internalType": "contract IPoolAddressesProvider",
          "name": "_poolAddressesProvider",
          "type": "address"
        },
        {
          "internalType": "contract ISwapRouter",
          "name": "_uniswapSwapRouter",
          "type": "address"
        },
        {
          "internalType": "contract IUniswapV2Router02",
          "name": "_sushiswapSwapRouter",
          "type": "address"
        }
      ],
      "stateMutability": "nonpayable",
      "type": "constructor"
    },
    {
      "inputs": [],
      "name": "ADDRESSES_PROVIDER",
      "outputs": [
        {
          "internalType": "contract IPoolAddressesProvider",
          "name": "",
          "type": "address"
        }
      ],
      "stateMutability": "view",
      "type": "function"
    },
    {
      "inputs": [],
      "name": "OWNER",
      "outputs": [
        {
          "internalType": "address",
          "name": "",
          "type": "address"
        }
      ],
      "stateMutability": "view",
      "type": "function"
    },
    {
      "inputs": [],
      "name": "POOL",
      "outputs": [
        {
          "internalType": "contract IPool",
          "name": "",
          "type": "address"
        }
      ],
      "stateMutability": "view",
      "type": "function"
    },
    {
      "inputs": [],
      "name": "SUSHISWAP_SWAP_ROUTER",
      "outputs": [
        {
          "internalType": "contract IUniswapV2Router02",
          "name": "",
          "type": "address"
        }
      ],
      "stateMutability": "view",
      "type": "function"
    },
    {
      "inputs": [],
      "name": "UNISWAP_SWAP_ROUTER",
      "outputs": [
        {
          "internalType": "contract ISwapRouter",
          "name": "",
          "type": "address"
        }
      ],
      "stateMutability": "view",
      "type": "function"
    },
    {
      "inputs": [],
      "name": "deposit",
      "outputs": [],
      "stateMutability": "payable",
      "type": "function"
    },
    {
      "inputs": [
        {
          "internalType": "address",
          "name": "_token",
          "type": "address"
        },
        {
          "internalType": "uint256",
          "name": "_amount",
          "type": "uint256"
        }
      ],
      "name": "depositToken",
      "outputs": [],
      "stateMutability": "nonpayable",
      "type": "function"
    },
    {
      "inputs": [
        {
          "internalType": "address",
          "name": "_token0",
          "type": "address"
        },
        {
          "internalType": "address",
          "name": "_token1",
          "type": "address"
        },
        {
          "internalType": "uint256",
          "name": "_amount",
          "type": "uint256"
        }
      ],
      "name": "executeArbitrage",
      "outputs": [],
      "stateMutability": "nonpayable",
      "type": "function"
    },
    {
      "inputs": [
        {
          "internalType": "address",
          "name": "asset",
          "type": "address"
        },
        {
          "internalType": "uint256",
          "name": "amount",
          "type": "uint256"
        },
        {
          "internalType": "uint256",
          "name": "premium",
          "type": "uint256"
        },
        {
          "internalType": "address",
          "name": "initiator",
          "type": "address"
        },
        {
          "internalType": "bytes",
          "name": "params",
          "type": "bytes"
        }
      ],
      "name": "executeOperation",
      "outputs": [
        {
          "internalType": "bool",
          "name": "",
          "type": "bool"
        }
      ],
      "stateMutability": "nonpayable",
      "type": "function"
    },
    {
      "inputs": [
        {
          "internalType": "address",
          "name": "_tokenIn",
          "type": "address"
        },
        {
          "internalType": "address",
          "name": "_tokenOut",
          "type": "address"
        },
        {
          "internalType": "uint256",
          "name": "_amount",
          "type": "uint256"
        }
      ],
      "name": "sushiswapSwap",
      "outputs": [
        {
          "internalType": "uint256[]",
          "name": "amounts",
          "type": "uint256[]"
        }
      ],
      "stateMutability": "nonpayable",
      "type": "function"
    },
    {
      "inputs": [
        {
          "internalType": "address",
          "name": "_tokenIn",
          "type": "address"
        },
        {
          "internalType": "address",
          "name": "_tokenOut",
          "type": "address"
        },
        {
          "internalType": "uint256",
          "name": "_amount",
          "type": "uint256"
        }
      ],
      "name": "uniswapSwap",
      "outputs": [
        {
          "internalType": "uint256",
          "name": "amountOut",
          "type": "uint256"
        }
      ],
      "stateMutability": "nonpayable",
      "type": "function"
    },
    {
      "inputs": [
        {
          "internalType": "address",
          "name": "_token",
          "type": "address"
        },
        {
          "internalType": "uint256",
          "name": "_amount",
          "type": "uint256"
        }
      ],
      "name": "withdrawFunds",
      "outputs": [],
      "stateMutability": "nonpayable",
      "type": "function"
    }
  ],
  "bytecode": "0x60c06040523480156200001157600080fd5b506040516200212a3803806200212a833981810160405281019062000037919062000305565b8173ffffffffffffffffffffffffffffffffffffffff1660808173ffffffffffffffffffffffffffffffffffffffff168152505082600160006101000a81548173ffffffffffffffffffffffffffffffffffffffff021916908373ffffffffffffffffffffffffffffffffffffffff1602179055508073ffffffffffffffffffffffffffffffffffffffff1660a08173ffffffffffffffffffffffffffffffffffffffff1681525050600160009054906101000a900473ffffffffffffffffffffffffffffffffffffffff1673ffffffffffffffffffffffffffffffffffffffff1663026b1d5f6040518163ffffffff1660e01b8152600401602060405180830381865afa1580156200014e573d6000803e3d6000fd5b505050506040513d601f19601f8201168201806040525081019062000174919062000392565b6000806101000a81548173ffffffffffffffffffffffffffffffffffffffff021916908373ffffffffffffffffffffffffffffffffffffffff16021790555033600260006101000a81548173ffffffffffffffffffffffffffffffffffffffff021916908373ffffffffffffffffffffffffffffffffffffffff160217905550505050620003c4565b600080fd5b600073ffffffffffffffffffffffffffffffffffffffff82169050919050565b60006200022f8262000202565b9050919050565b6000620002438262000222565b9050919050565b620002558162000236565b81146200026157600080fd5b50565b60008151905062000275816200024a565b92915050565b6000620002888262000222565b9050919050565b6200029a816200027b565b8114620002a657600080fd5b50565b600081519050620002ba816200028f565b92915050565b6000620002cd8262000222565b9050919050565b620002df81620002c0565b8114620002eb57600080fd5b50565b600081519050620002ff81620002d4565b92915050565b600080600060608486031215620003215762000320620001fd565b5b6000620003318682870162000264565b93505060206200034486828701620002a9565b92505060406200035786828701620002ee565b9150509250925092565b6200036c8162000222565b81146200037857600080fd5b50565b6000815190506200038c8162000361565b92915050565b600060208284031215620003ab57620003aa620001fd565b5b6000620003bb848285016200037b565b91505092915050565b60805160a051611d2462000406600039600081816105700152818161068301526107fb0152600081816109b301528181610a790152610c770152611d246000f3fe6080604052600436106100a75760003560e01c8063650f84be11610064578063650f84be146101d05780637535d246146101f9578063996ee3e814610224578063c107532914610261578063d0e30db01461028a578063dcaa117c14610294576100a7565b80630542975c146100ac578063117803e3146100d75780631b11d0ff146101025780632c9a1a1c1461013f578063338b5dea1461017c5780634a3b8720146101a5575b600080fd5b3480156100b857600080fd5b506100c16102bf565b6040516100ce9190610fc2565b60405180910390f35b3480156100e357600080fd5b506100ec6102e5565b6040516100f99190610ffe565b60405180910390f35b34801561010e57600080fd5b50610129600480360381019061012491906110f4565b61030b565b60405161013691906111a9565b60405180910390f35b34801561014b57600080fd5b50610166600480360381019061016191906111c4565b61055d565b60405161017391906112d5565b60405180910390f35b34801561018857600080fd5b506101a3600480360381019061019e91906112f7565b610736565b005b3480156101b157600080fd5b506101ba6107f9565b6040516101c79190611358565b60405180910390f35b3480156101dc57600080fd5b506101f760048036038101906101f291906111c4565b61081d565b005b34801561020557600080fd5b5061020e61097c565b60405161021b9190611394565b60405180910390f35b34801561023057600080fd5b5061024b600480360381019061024691906111c4565b6109a0565b60405161025891906113be565b60405180910390f35b34801561026d57600080fd5b50610288600480360381019061028391906112f7565b610b1d565b005b610292610c30565b005b3480156102a057600080fd5b506102a9610c75565b6040516102b691906113fa565b60405180910390f35b600160009054906101000a900473ffffffffffffffffffffffffffffffffffffffff1681565b600260009054906101000a900473ffffffffffffffffffffffffffffffffffffffff1681565b6000803073ffffffffffffffffffffffffffffffffffffffff1663996ee3e8600360009054906101000a900473ffffffffffffffffffffffffffffffffffffffff16600460009054906101000a900473ffffffffffffffffffffffffffffffffffffffff168a6040518463ffffffff1660e01b815260040161038f93929190611415565b6020604051808303816000875af11580156103ae573d6000803e3d6000fd5b505050506040513d601f19601f820116820180604052508101906103d29190611461565b90503073ffffffffffffffffffffffffffffffffffffffff16632c9a1a1c600460009054906101000a900473ffffffffffffffffffffffffffffffffffffffff16600360009054906101000a900473ffffffffffffffffffffffffffffffffffffffff16846040518463ffffffff1660e01b815260040161045593929190611415565b6000604051808303816000875af1158015610474573d6000803e3d6000fd5b505050506040513d6000823e3d601f19601f8201168201806040525081019061049d91906115dd565b50600086886104ac9190611655565b90508873ffffffffffffffffffffffffffffffffffffffff1663095ea7b360008054906101000a900473ffffffffffffffffffffffffffffffffffffffff16836040518363ffffffff1660e01b8152600401610509929190611689565b6020604051808303816000875af1158015610528573d6000803e3d6000fd5b505050506040513d601f19601f8201168201806040525081019061054c91906116de565b506001925050509695505050505050565b606061056a843084610c99565b610595847f000000000000000000000000000000000000000000000000000000000000000084610dee565b6000600267ffffffffffffffff8111156105b2576105b161149f565b5b6040519080825280602002602001820160405280156105e05781602001602082028036833780820191505090505b50905084816000815181106105f8576105f761170b565b5b602002602001019073ffffffffffffffffffffffffffffffffffffffff16908173ffffffffffffffffffffffffffffffffffffffff168152505083816001815181106106475761064661170b565b5b602002602001019073ffffffffffffffffffffffffffffffffffffffff16908173ffffffffffffffffffffffffffffffffffffffff16815250507f000000000000000000000000000000000000000000000000000000000000000073ffffffffffffffffffffffffffffffffffffffff166338ed1739846000843060006040518663ffffffff1660e01b81526004016106e4959493929190611833565b6000604051808303816000875af1158015610703573d6000803e3d6000fd5b505050506040513d6000823e3d601f19601f8201168201806040525081019061072c91906115dd565b9150509392505050565b8173ffffffffffffffffffffffffffffffffffffffff166323b872dd3330846040518463ffffffff1660e01b815260040161077393929190611415565b6020604051808303816000875af1158015610792573d6000803e3d6000fd5b505050506040513d601f19601f820116820180604052508101906107b691906116de565b6107f5576040517f08c379a00000000000000000000000000000000000000000000000000000000081526004016107ec906118ea565b60405180910390fd5b5050565b7f000000000000000000000000000000000000000000000000000000000000000081565b600030905083600360006101000a81548173ffffffffffffffffffffffffffffffffffffffff021916908373ffffffffffffffffffffffffffffffffffffffff16021790555082600460006101000a81548173ffffffffffffffffffffffffffffffffffffffff021916908373ffffffffffffffffffffffffffffffffffffffff160217905550600082905060006040518060200160405280600081525090506000808054906101000a900473ffffffffffffffffffffffffffffffffffffffff1673ffffffffffffffffffffffffffffffffffffffff166342b0b77c85600360009054906101000a900473ffffffffffffffffffffffffffffffffffffffff168686866040518663ffffffff1660e01b81526004016109419594939291906119a6565b600060405180830381600087803b15801561095b57600080fd5b505af115801561096f573d6000803e3d6000fd5b5050505050505050505050565b60008054906101000a900473ffffffffffffffffffffffffffffffffffffffff1681565b60006109ad843084610c99565b6109d8847f000000000000000000000000000000000000000000000000000000000000000084610dee565b60006040518061010001604052808673ffffffffffffffffffffffffffffffffffffffff1681526020018573ffffffffffffffffffffffffffffffffffffffff168152602001610bb862ffffff1681526020013073ffffffffffffffffffffffffffffffffffffffff16815260200142815260200184815260200160008152602001600073ffffffffffffffffffffffffffffffffffffffff1681525090507f000000000000000000000000000000000000000000000000000000000000000073ffffffffffffffffffffffffffffffffffffffff1663414bf389826040518263ffffffff1660e01b8152600401610ad09190611acf565b6020604051808303816000875af1158015610aef573d6000803e3d6000fd5b505050506040513d601f19601f82011682018060405250810190610b139190611461565b9150509392505050565b600260009054906101000a900473ffffffffffffffffffffffffffffffffffffffff1673ffffffffffffffffffffffffffffffffffffffff163373ffffffffffffffffffffffffffffffffffffffff1614610bad576040517f08c379a0000000000000000000000000000000000000000000000000000000008152600401610ba490611b37565b60405180910390fd5b8173ffffffffffffffffffffffffffffffffffffffff1663a9059cbb33836040518363ffffffff1660e01b8152600401610be8929190611689565b6020604051808303816000875af1158015610c07573d6000803e3d6000fd5b505050506040513d601f19601f82011682018060405250810190610c2b91906116de565b505050565b60003411610c73576040517f08c379a0000000000000000000000000000000000000000000000000000000008152600401610c6a90611ba3565b60405180910390fd5b565b7f000000000000000000000000000000000000000000000000000000000000000081565b6000808473ffffffffffffffffffffffffffffffffffffffff1663a9059cbb60e01b8585604051602401610cce929190611689565b604051602081830303815290604052907bffffffffffffffffffffffffffffffffffffffffffffffffffffffff19166020820180517bffffffffffffffffffffffffffffffffffffffffffffffffffffffff8381831617835250505050604051610d389190611bff565b6000604051808303816000865af19150503d8060008114610d75576040519150601f19603f3d011682016040523d82523d6000602084013e610d7a565b606091505b5091509150818015610da85750600081511480610da7575080806020019051810190610da691906116de565b5b5b610de7576040517f08c379a0000000000000000000000000000000000000000000000000000000008152600401610dde90611c62565b60405180910390fd5b5050505050565b6000808473ffffffffffffffffffffffffffffffffffffffff1663095ea7b360e01b8585604051602401610e23929190611689565b604051602081830303815290604052907bffffffffffffffffffffffffffffffffffffffffffffffffffffffff19166020820180517bffffffffffffffffffffffffffffffffffffffffffffffffffffffff8381831617835250505050604051610e8d9190611bff565b6000604051808303816000865af19150503d8060008114610eca576040519150601f19603f3d011682016040523d82523d6000602084013e610ecf565b606091505b5091509150818015610efd5750600081511480610efc575080806020019051810190610efb91906116de565b5b5b610f3c576040517f08c379a0000000000000000000000000000000000000000000000000000000008152600401610f3390611cce565b60405180910390fd5b5050505050565b600073ffffffffffffffffffffffffffffffffffffffff82169050919050565b6000819050919050565b6000610f88610f83610f7e84610f43565b610f63565b610f43565b9050919050565b6000610f9a82610f6d565b9050919050565b6000610fac82610f8f565b9050919050565b610fbc81610fa1565b82525050565b6000602082019050610fd76000830184610fb3565b92915050565b6000610fe882610f43565b9050919050565b610ff881610fdd565b82525050565b60006020820190506110136000830184610fef565b92915050565b6000604051905090565b600080fd5b600080fd5b61103681610fdd565b811461104157600080fd5b50565b6000813590506110538161102d565b92915050565b6000819050919050565b61106c81611059565b811461107757600080fd5b50565b60008135905061108981611063565b92915050565b600080fd5b600080fd5b600080fd5b60008083601f8401126110b4576110b361108f565b5b8235905067ffffffffffffffff8111156110d1576110d0611094565b5b6020830191508360018202830111156110ed576110ec611099565b5b9250929050565b60008060008060008060a0878903121561111157611110611023565b5b600061111f89828a01611044565b965050602061113089828a0161107a565b955050604061114189828a0161107a565b945050606061115289828a01611044565b935050608087013567ffffffffffffffff81111561117357611172611028565b5b61117f89828a0161109e565b92509250509295509295509295565b60008115159050919050565b6111a38161118e565b82525050565b60006020820190506111be600083018461119a565b92915050565b6000806000606084860312156111dd576111dc611023565b5b60006111eb86828701611044565b93505060206111fc86828701611044565b925050604061120d8682870161107a565b9150509250925092565b600081519050919050565b600082825260208201905092915050565b6000819050602082019050919050565b61124c81611059565b82525050565b600061125e8383611243565b60208301905092915050565b6000602082019050919050565b600061128282611217565b61128c8185611222565b935061129783611233565b8060005b838110156112c85781516112af8882611252565b97506112ba8361126a565b92505060018101905061129b565b5085935050505092915050565b600060208201905081810360008301526112ef8184611277565b905092915050565b6000806040838503121561130e5761130d611023565b5b600061131c85828601611044565b925050602061132d8582860161107a565b9150509250929050565b600061134282610f8f565b9050919050565b61135281611337565b82525050565b600060208201905061136d6000830184611349565b92915050565b600061137e82610f8f565b9050919050565b61138e81611373565b82525050565b60006020820190506113a96000830184611385565b92915050565b6113b881611059565b82525050565b60006020820190506113d360008301846113af565b92915050565b60006113e482610f8f565b9050919050565b6113f4816113d9565b82525050565b600060208201905061140f60008301846113eb565b92915050565b600060608201905061142a6000830186610fef565b6114376020830185610fef565b61144460408301846113af565b949350505050565b60008151905061145b81611063565b92915050565b60006020828403121561147757611476611023565b5b60006114858482850161144c565b91505092915050565b6000601f19601f8301169050919050565b7f4e487b7100000000000000000000000000000000000000000000000000000000600052604160045260246000fd5b6114d78261148e565b810181811067ffffffffffffffff821117156114f6576114f561149f565b5b80604052505050565b6000611509611019565b905061151582826114ce565b919050565b600067ffffffffffffffff8211156115355761153461149f565b5b602082029050602081019050919050565b60006115596115548461151a565b6114ff565b9050808382526020820190506020840283018581111561157c5761157b611099565b5b835b818110156115a55780611591888261144c565b84526020840193505060208101905061157e565b5050509392505050565b600082601f8301126115c4576115c361108f565b5b81516115d4848260208601611546565b91505092915050565b6000602082840312156115f3576115f2611023565b5b600082015167ffffffffffffffff81111561161157611610611028565b5b61161d848285016115af565b91505092915050565b7f4e487b7100000000000000000000000000000000000000000000000000000000600052601160045260246000fd5b600061166082611059565b915061166b83611059565b925082820190508082111561168357611682611626565b5b92915050565b600060408201905061169e6000830185610fef565b6116ab60208301846113af565b9392505050565b6116bb8161118e565b81146116c657600080fd5b50565b6000815190506116d8816116b2565b92915050565b6000602082840312156116f4576116f3611023565b5b6000611702848285016116c9565b91505092915050565b7f4e487b7100000000000000000000000000000000000000000000000000000000600052603260045260246000fd5b6000819050919050565b600061175f61175a6117558461173a565b610f63565b611059565b9050919050565b61176f81611744565b82525050565b600081519050919050565b600082825260208201905092915050565b6000819050602082019050919050565b6117aa81610fdd565b82525050565b60006117bc83836117a1565b60208301905092915050565b6000602082019050919050565b60006117e082611775565b6117ea8185611780565b93506117f583611791565b8060005b8381101561182657815161180d88826117b0565b9750611818836117c8565b9250506001810190506117f9565b5085935050505092915050565b600060a08201905061184860008301886113af565b6118556020830187611766565b818103604083015261186781866117d5565b90506118766060830185610fef565b6118836080830184611766565b9695505050505050565b600082825260208201905092915050565b7f4465706f736974204661696c6564000000000000000000000000000000000000600082015250565b60006118d4600e8361188d565b91506118df8261189e565b602082019050919050565b60006020820190508181036000830152611903816118c7565b9050919050565b600081519050919050565b600082825260208201905092915050565b60005b83811015611944578082015181840152602081019050611929565b60008484015250505050565b600061195b8261190a565b6119658185611915565b9350611975818560208601611926565b61197e8161148e565b840191505092915050565b600061ffff82169050919050565b6119a081611989565b82525050565b600060a0820190506119bb6000830188610fef565b6119c86020830187610fef565b6119d560408301866113af565b81810360608301526119e78185611950565b90506119f66080830184611997565b9695505050505050565b600062ffffff82169050919050565b611a1881611a00565b82525050565b611a2781610f43565b82525050565b61010082016000820151611a4460008501826117a1565b506020820151611a5760208501826117a1565b506040820151611a6a6040850182611a0f565b506060820151611a7d60608501826117a1565b506080820151611a906080850182611243565b5060a0820151611aa360a0850182611243565b5060c0820151611ab660c0850182611243565b5060e0820151611ac960e0850182611a1e565b50505050565b600061010082019050611ae56000830184611a2d565b92915050565b7f4f6e6c79206f776e65722063616e2077697468647261772066756e6473000000600082015250565b6000611b21601d8361188d565b9150611b2c82611aeb565b602082019050919050565b60006020820190508181036000830152611b5081611b14565b9050919050565b7f43616e6e6f74206465706f7369742030206f72206c6573732077656900000000600082015250565b6000611b8d601c8361188d565b9150611b9882611b57565b602082019050919050565b60006020820190508181036000830152611bbc81611b80565b9050919050565b600081905092915050565b6000611bd98261190a565b611be38185611bc3565b9350611bf3818560208601611926565b80840191505092915050565b6000611c0b8284611bce565b915081905092915050565b7f5354000000000000000000000000000000000000000000000000000000000000600082015250565b6000611c4c60028361188d565b9150611c5782611c16565b602082019050919050565b60006020820190508181036000830152611c7b81611c3f565b9050919050565b7f5341000000000000000000000000000000000000000000000000000000000000600082015250565b6000611cb860028361188d565b9150611cc382611c82565b602082019050919050565b60006020820190508181036000830152611ce781611cab565b905091905056fea26469706673582212206e6986188fa22ba2926a0822cab9bd092ed2e32a2ae6f1698ac98fe150e7ae3664736f6c63430008110033",
  "linkReferences": {},
  "deployedLinkReferences": {}
}