{
  "_format": "hh-sol-artifact-1",
  "contractName": "UniswapExample",
  "sourceName": "contracts/examples/UniswapExample.sol",
  "abi": [
    {
      "inputs": [
        {
          "internalType": "contract ISwapRouter",
          "name": "_swapRouter",
          "type": "address"
        },
        {
          "internalType": "address",
          "name": "_dai",
          "type": "address"
        },
        {
          "internalType": "address",
          "name": "_weth",
          "type": "address"
        }
      ],
      "stateMutability": "nonpayable",
      "type": "constructor"
    },
    {
      "inputs": [],
      "name": "dai",
      "outputs": [
        {
          "internalType": "address",
          "name": "",
          "type": "address"
        }
      ],
      "stateMutability": "view",
      "type": "function"
    },
    {
      "inputs": [],
      "name": "poolFee",
      "outputs": [
        {
          "internalType": "uint24",
          "name": "",
          "type": "uint24"
        }
      ],
      "stateMutability": "view",
      "type": "function"
    },
    {
      "inputs": [
        {
          "internalType": "uint256",
          "name": "amountIn",
          "type": "uint256"
        }
      ],
      "name": "swapExactInputSingle",
      "outputs": [
        {
          "internalType": "uint256",
          "name": "amountOut",
          "type": "uint256"
        }
      ],
      "stateMutability": "nonpayable",
      "type": "function"
    },
    {
      "inputs": [],
      "name": "swapRouter",
      "outputs": [
        {
          "internalType": "contract ISwapRouter",
          "name": "",
          "type": "address"
        }
      ],
      "stateMutability": "view",
      "type": "function"
    },
    {
      "inputs": [],
      "name": "weth",
      "outputs": [
        {
          "internalType": "address",
          "name": "",
          "type": "address"
        }
      ],
      "stateMutability": "view",
      "type": "function"
    }
  ],
  "bytecode": "0x60a06040523480156200001157600080fd5b5060405162000da438038062000da48339818101604052810190620000379190620001a4565b8273ffffffffffffffffffffffffffffffffffffffff1660808173ffffffffffffffffffffffffffffffffffffffff1681525050816000806101000a81548173ffffffffffffffffffffffffffffffffffffffff021916908373ffffffffffffffffffffffffffffffffffffffff16021790555080600160006101000a81548173ffffffffffffffffffffffffffffffffffffffff021916908373ffffffffffffffffffffffffffffffffffffffff16021790555050505062000200565b600080fd5b600073ffffffffffffffffffffffffffffffffffffffff82169050919050565b60006200012782620000fa565b9050919050565b60006200013b826200011a565b9050919050565b6200014d816200012e565b81146200015957600080fd5b50565b6000815190506200016d8162000142565b92915050565b6200017e816200011a565b81146200018a57600080fd5b50565b6000815190506200019e8162000173565b92915050565b600080600060608486031215620001c057620001bf620000f5565b5b6000620001d0868287016200015c565b9350506020620001e3868287016200018d565b9250506040620001f6868287016200018d565b9150509250925092565b608051610b7a6200022a600039600081816101840152818161028c01526103300152610b7a6000f3fe608060405234801561001057600080fd5b50600436106100575760003560e01c8063089fe6aa1461005c5780633fc8cef31461007a57806373bd43ad14610098578063c31c9c07146100c8578063f4b9fa75146100e6575b600080fd5b610064610104565b6040516100719190610603565b60405180910390f35b61008261010a565b60405161008f919061065f565b60405180910390f35b6100b260048036038101906100ad91906106b5565b610130565b6040516100bf91906106f1565b60405180910390f35b6100d061032e565b6040516100dd919061076b565b60405180910390f35b6100ee610352565b6040516100fb919061065f565b60405180910390f35b610bb881565b600160009054906101000a900473ffffffffffffffffffffffffffffffffffffffff1681565b600061015e60008054906101000a900473ffffffffffffffffffffffffffffffffffffffff16333085610376565b6101a960008054906101000a900473ffffffffffffffffffffffffffffffffffffffff167f0000000000000000000000000000000000000000000000000000000000000000846104af565b600060405180610100016040528060008054906101000a900473ffffffffffffffffffffffffffffffffffffffff1673ffffffffffffffffffffffffffffffffffffffff168152602001600160009054906101000a900473ffffffffffffffffffffffffffffffffffffffff1673ffffffffffffffffffffffffffffffffffffffff168152602001610bb862ffffff1681526020013373ffffffffffffffffffffffffffffffffffffffff16815260200142815260200184815260200160008152602001600073ffffffffffffffffffffffffffffffffffffffff1681525090507f000000000000000000000000000000000000000000000000000000000000000073ffffffffffffffffffffffffffffffffffffffff1663414bf389826040518263ffffffff1660e01b81526004016102e39190610864565b6020604051808303816000875af1158015610302573d6000803e3d6000fd5b505050506040513d601f19601f820116820180604052508101906103269190610895565b915050919050565b7f000000000000000000000000000000000000000000000000000000000000000081565b60008054906101000a900473ffffffffffffffffffffffffffffffffffffffff1681565b6000808573ffffffffffffffffffffffffffffffffffffffff166323b872dd8686866040516024016103aa939291906108c2565b6040516020818303038152906040529060e01b6020820180517bffffffffffffffffffffffffffffffffffffffffffffffffffffffff83818316178352505050506040516103f8919061096a565b6000604051808303816000865af19150503d8060008114610435576040519150601f19603f3d011682016040523d82523d6000602084013e61043a565b606091505b5091509150818015610468575060008151148061046757508080602001905181019061046691906109b9565b5b5b6104a7576040517f08c379a000000000000000000000000000000000000000000000000000000000815260040161049e90610a69565b60405180910390fd5b505050505050565b6000808473ffffffffffffffffffffffffffffffffffffffff1663095ea7b385856040516024016104e1929190610a89565b6040516020818303038152906040529060e01b6020820180517bffffffffffffffffffffffffffffffffffffffffffffffffffffffff838183161783525050505060405161052f919061096a565b6000604051808303816000865af19150503d806000811461056c576040519150601f19603f3d011682016040523d82523d6000602084013e610571565b606091505b509150915081801561059f575060008151148061059e57508080602001905181019061059d91906109b9565b5b5b6105de576040517f08c379a00000000000000000000000000000000000000000000000000000000081526004016105d590610b24565b60405180910390fd5b5050505050565b600062ffffff82169050919050565b6105fd816105e5565b82525050565b600060208201905061061860008301846105f4565b92915050565b600073ffffffffffffffffffffffffffffffffffffffff82169050919050565b60006106498261061e565b9050919050565b6106598161063e565b82525050565b60006020820190506106746000830184610650565b92915050565b600080fd5b6000819050919050565b6106928161067f565b811461069d57600080fd5b50565b6000813590506106af81610689565b92915050565b6000602082840312156106cb576106ca61067a565b5b60006106d9848285016106a0565b91505092915050565b6106eb8161067f565b82525050565b600060208201905061070660008301846106e2565b92915050565b6000819050919050565b600061073161072c6107278461061e565b61070c565b61061e565b9050919050565b600061074382610716565b9050919050565b600061075582610738565b9050919050565b6107658161074a565b82525050565b6000602082019050610780600083018461075c565b92915050565b61078f8161063e565b82525050565b61079e816105e5565b82525050565b6107ad8161067f565b82525050565b6107bc8161061e565b82525050565b610100820160008201516107d96000850182610786565b5060208201516107ec6020850182610786565b5060408201516107ff6040850182610795565b5060608201516108126060850182610786565b50608082015161082560808501826107a4565b5060a082015161083860a08501826107a4565b5060c082015161084b60c08501826107a4565b5060e082015161085e60e08501826107b3565b50505050565b60006101008201905061087a60008301846107c2565b92915050565b60008151905061088f81610689565b92915050565b6000602082840312156108ab576108aa61067a565b5b60006108b984828501610880565b91505092915050565b60006060820190506108d76000830186610650565b6108e46020830185610650565b6108f160408301846106e2565b949350505050565b600081519050919050565b600081905092915050565b60005b8381101561092d578082015181840152602081019050610912565b60008484015250505050565b6000610944826108f9565b61094e8185610904565b935061095e81856020860161090f565b80840191505092915050565b60006109768284610939565b915081905092915050565b60008115159050919050565b61099681610981565b81146109a157600080fd5b50565b6000815190506109b38161098d565b92915050565b6000602082840312156109cf576109ce61067a565b5b60006109dd848285016109a4565b91505092915050565b600082825260208201905092915050565b7f5472616e7366657248656c7065723a3a7472616e7366657246726f6d3a20747260008201527f616e7366657246726f6d206661696c6564000000000000000000000000000000602082015250565b6000610a536031836109e6565b9150610a5e826109f7565b604082019050919050565b60006020820190508181036000830152610a8281610a46565b9050919050565b6000604082019050610a9e6000830185610650565b610aab60208301846106e2565b9392505050565b7f5472616e7366657248656c7065723a3a73616665417070726f76653a2061707060008201527f726f7665206661696c6564000000000000000000000000000000000000000000602082015250565b6000610b0e602b836109e6565b9150610b1982610ab2565b604082019050919050565b60006020820190508181036000830152610b3d81610b01565b905091905056fea264697066735822122005d6f1b8544fbe6ff33d886a2530a34e579c002599944ce54902c20363ea4ff464736f6c63430008110033",
  "linkReferences": {},
  "deployedLinkReferences": {}
}